{
  "_format": "hh-sol-artifact-1",
  "contractName": "APCampaignManager",
  "sourceName": "contracts/Campaign/APCampaignManager.sol",
  "abi": [
    {
      "inputs": [
        {
          "internalType": "address",
          "name": "initialOwner",
          "type": "address"
        }
      ],
      "stateMutability": "nonpayable",
      "type": "constructor"
    },
    {
      "inputs": [
        {
          "internalType": "address",
          "name": "owner",
          "type": "address"
        }
      ],
      "name": "OwnableInvalidOwner",
      "type": "error"
    },
    {
      "inputs": [
        {
          "internalType": "address",
          "name": "account",
          "type": "address"
        }
      ],
      "name": "OwnableUnauthorizedAccount",
      "type": "error"
    },
    {
      "anonymous": false,
      "inputs": [
        {
          "indexed": true,
          "internalType": "address",
          "name": "previousOwner",
          "type": "address"
        },
        {
          "indexed": true,
          "internalType": "address",
          "name": "newOwner",
          "type": "address"
        }
      ],
      "name": "OwnershipTransferred",
      "type": "event"
    },
    {
      "inputs": [
        {
          "internalType": "uint256",
          "name": "",
          "type": "uint256"
        }
      ],
      "name": "_campaignAddresses",
      "outputs": [
        {
          "internalType": "address",
          "name": "",
          "type": "address"
        }
      ],
      "stateMutability": "view",
      "type": "function"
    },
    {
      "inputs": [],
      "name": "_nextCampaignId",
      "outputs": [
        {
          "internalType": "uint256",
          "name": "",
          "type": "uint256"
        }
      ],
      "stateMutability": "view",
      "type": "function"
    },
    {
      "inputs": [
        {
          "components": [
            {
              "internalType": "address",
              "name": "investToken",
              "type": "address"
            },
            {
              "internalType": "uint256",
              "name": "presaleRate",
              "type": "uint256"
            },
            {
              "internalType": "uint256",
              "name": "targetSaleAmount",
              "type": "uint256"
            },
            {
              "internalType": "uint256",
              "name": "minBuy",
              "type": "uint256"
            },
            {
              "internalType": "uint256",
              "name": "maxBuy",
              "type": "uint256"
            },
            {
              "internalType": "bool",
              "name": "isRefundable",
              "type": "bool"
            },
            {
              "internalType": "uint256",
              "name": "saleStartTime",
              "type": "uint256"
            },
            {
              "internalType": "uint256",
              "name": "saleEndTime",
              "type": "uint256"
            }
          ],
          "internalType": "struct CampaignData",
          "name": "newCampaignData",
          "type": "tuple"
        }
      ],
      "name": "createCampaign",
      "outputs": [],
      "stateMutability": "nonpayable",
      "type": "function"
    },
    {
      "inputs": [],
      "name": "getAllCampaignAddresses",
      "outputs": [
        {
          "internalType": "address[]",
          "name": "campaignAddresses",
          "type": "address[]"
        }
      ],
      "stateMutability": "view",
      "type": "function"
    },
    {
      "inputs": [],
      "name": "owner",
      "outputs": [
        {
          "internalType": "address",
          "name": "",
          "type": "address"
        }
      ],
      "stateMutability": "view",
      "type": "function"
    },
    {
      "inputs": [],
      "name": "renounceOwnership",
      "outputs": [],
      "stateMutability": "nonpayable",
      "type": "function"
    },
    {
      "inputs": [
        {
          "internalType": "address",
          "name": "newOwner",
          "type": "address"
        }
      ],
      "name": "transferOwnership",
      "outputs": [],
      "stateMutability": "nonpayable",
      "type": "function"
    }
  ],
  "bytecode": "0x60806040523480156200001157600080fd5b5060405162001bed38038062001bed8339818101604052810190620000379190620001f4565b80600073ffffffffffffffffffffffffffffffffffffffff168173ffffffffffffffffffffffffffffffffffffffff1603620000ad5760006040517f1e4fbdf7000000000000000000000000000000000000000000000000000000008152600401620000a4919062000237565b60405180910390fd5b620000be81620000c660201b60201c565b505062000254565b60008060009054906101000a900473ffffffffffffffffffffffffffffffffffffffff169050816000806101000a81548173ffffffffffffffffffffffffffffffffffffffff021916908373ffffffffffffffffffffffffffffffffffffffff1602179055508173ffffffffffffffffffffffffffffffffffffffff168173ffffffffffffffffffffffffffffffffffffffff167f8be0079c531659141344cd1fd0a4f28419497f9722a3daafe3b4186f6b6457e060405160405180910390a35050565b600080fd5b600073ffffffffffffffffffffffffffffffffffffffff82169050919050565b6000620001bc826200018f565b9050919050565b620001ce81620001af565b8114620001da57600080fd5b50565b600081519050620001ee81620001c3565b92915050565b6000602082840312156200020d576200020c6200018a565b5b60006200021d84828501620001dd565b91505092915050565b6200023181620001af565b82525050565b60006020820190506200024e600083018462000226565b92915050565b61198980620002646000396000f3fe60806040523480156200001157600080fd5b5060043610620000885760003560e01c80638b2fad6311620000635780638b2fad6314620000db5780638da5cb5b14620000fd578063ae021a4c146200011f578063f2fde38b14620001555762000088565b80632052933a146200008d5780632bf5b5a314620000af578063715018a614620000cf575b600080fd5b6200009762000175565b604051620000a69190620005fc565b60405180910390f35b620000cd6004803603810190620000c7919062000874565b6200017b565b005b620000d96200027f565b005b620000e562000297565b604051620000f4919062000975565b60405180910390f35b620001076200038e565b604051620001169190620009aa565b60405180910390f35b6200013d6004803603810190620001379190620009c7565b620003b7565b6040516200014c9190620009aa565b60405180910390f35b6200017360048036038101906200016d9190620009f9565b620003ea565b005b60015481565b428160c001511015620001c5576040517f08c379a0000000000000000000000000000000000000000000000000000000008152600401620001bc9062000ab2565b60405180910390fd5b6000620001d16200038e565b82604051620001e090620005d3565b620001ed92919062000ba8565b604051809103906000f0801580156200020a573d6000803e3d6000fd5b5090508060026000600154815260200190815260200160002060006101000a81548173ffffffffffffffffffffffffffffffffffffffff021916908373ffffffffffffffffffffffffffffffffffffffff16021790555060016000815480929190620002769062000c05565b91905055505050565b6200028962000477565b62000295600062000507565b565b606060015467ffffffffffffffff811115620002b857620002b76200063e565b5b604051908082528060200260200182016040528015620002e75781602001602082028036833780820191505090505b50905060005b6001548110156200038a576002600082815260200190815260200160002060009054906101000a900473ffffffffffffffffffffffffffffffffffffffff1682828151811062000342576200034162000c52565b5b602002602001019073ffffffffffffffffffffffffffffffffffffffff16908173ffffffffffffffffffffffffffffffffffffffff16815250508080600101915050620002ed565b5090565b60008060009054906101000a900473ffffffffffffffffffffffffffffffffffffffff16905090565b60026020528060005260406000206000915054906101000a900473ffffffffffffffffffffffffffffffffffffffff1681565b620003f462000477565b600073ffffffffffffffffffffffffffffffffffffffff168173ffffffffffffffffffffffffffffffffffffffff1603620004695760006040517f1e4fbdf7000000000000000000000000000000000000000000000000000000008152600401620004609190620009aa565b60405180910390fd5b620004748162000507565b50565b62000481620005cb565b73ffffffffffffffffffffffffffffffffffffffff16620004a16200038e565b73ffffffffffffffffffffffffffffffffffffffff16146200050557620004c7620005cb565b6040517f118cdaa7000000000000000000000000000000000000000000000000000000008152600401620004fc9190620009aa565b60405180910390fd5b565b60008060009054906101000a900473ffffffffffffffffffffffffffffffffffffffff169050816000806101000a81548173ffffffffffffffffffffffffffffffffffffffff021916908373ffffffffffffffffffffffffffffffffffffffff1602179055508173ffffffffffffffffffffffffffffffffffffffff168173ffffffffffffffffffffffffffffffffffffffff167f8be0079c531659141344cd1fd0a4f28419497f9722a3daafe3b4186f6b6457e060405160405180910390a35050565b600033905090565b610cd28062000c8283390190565b6000819050919050565b620005f681620005e1565b82525050565b6000602082019050620006136000830184620005eb565b92915050565b6000604051905090565b600080fd5b600080fd5b6000601f19601f8301169050919050565b7f4e487b7100000000000000000000000000000000000000000000000000000000600052604160045260246000fd5b62000678826200062d565b810181811067ffffffffffffffff821117156200069a57620006996200063e565b5b80604052505050565b6000620006af62000619565b9050620006bd82826200066d565b919050565b600073ffffffffffffffffffffffffffffffffffffffff82169050919050565b6000620006ef82620006c2565b9050919050565b6200070181620006e2565b81146200070d57600080fd5b50565b6000813590506200072181620006f6565b92915050565b6200073281620005e1565b81146200073e57600080fd5b50565b600081359050620007528162000727565b92915050565b60008115159050919050565b6200076f8162000758565b81146200077b57600080fd5b50565b6000813590506200078f8162000764565b92915050565b60006101008284031215620007af57620007ae62000628565b5b620007bc610100620006a3565b90506000620007ce8482850162000710565b6000830152506020620007e48482850162000741565b6020830152506040620007fa8482850162000741565b6040830152506060620008108482850162000741565b6060830152506080620008268482850162000741565b60808301525060a06200083c848285016200077e565b60a08301525060c0620008528482850162000741565b60c08301525060e0620008688482850162000741565b60e08301525092915050565b600061010082840312156200088e576200088d62000623565b5b60006200089e8482850162000795565b91505092915050565b600081519050919050565b600082825260208201905092915050565b6000819050602082019050919050565b620008de81620006e2565b82525050565b6000620008f28383620008d3565b60208301905092915050565b6000602082019050919050565b60006200091882620008a7565b620009248185620008b2565b93506200093183620008c3565b8060005b83811015620009685781516200094c8882620008e4565b97506200095983620008fe565b92505060018101905062000935565b5085935050505092915050565b600060208201905081810360008301526200099181846200090b565b905092915050565b620009a481620006e2565b82525050565b6000602082019050620009c1600083018462000999565b92915050565b600060208284031215620009e057620009df62000623565b5b6000620009f08482850162000741565b91505092915050565b60006020828403121562000a125762000a1162000623565b5b600062000a228482850162000710565b91505092915050565b600082825260208201905092915050565b7f596f75206d757374206368686f73652061206675747572652074696d6520617360008201527f207468652063616d706169676e2073746172742074696d652e00000000000000602082015250565b600062000a9a60398362000a2b565b915062000aa78262000a3c565b604082019050919050565b6000602082019050818103600083015262000acd8162000a8b565b9050919050565b62000adf81620005e1565b82525050565b62000af08162000758565b82525050565b6101008201600082015162000b0f6000850182620008d3565b50602082015162000b24602085018262000ad4565b50604082015162000b39604085018262000ad4565b50606082015162000b4e606085018262000ad4565b50608082015162000b63608085018262000ad4565b5060a082015162000b7860a085018262000ae5565b5060c082015162000b8d60c085018262000ad4565b5060e082015162000ba260e085018262000ad4565b50505050565b60006101208201905062000bc0600083018562000999565b62000bcf602083018462000af6565b9392505050565b7f4e487b7100000000000000000000000000000000000000000000000000000000600052601160045260246000fd5b600062000c1282620005e1565b91507fffffffffffffffffffffffffffffffffffffffffffffffffffffffffffffffff820362000c475762000c4662000bd6565b5b600182019050919050565b7f4e487b7100000000000000000000000000000000000000000000000000000000600052603260045260246000fdfe60806040523480156200001157600080fd5b5060405162000cd238038062000cd2833981810160405281019062000037919062000499565b81600073ffffffffffffffffffffffffffffffffffffffff168173ffffffffffffffffffffffffffffffffffffffff1603620000ad5760006040517f1e4fbdf7000000000000000000000000000000000000000000000000000000008152600401620000a49190620004f2565b60405180910390fd5b620000be816200017060201b60201c565b5080600160008201518160000160006101000a81548173ffffffffffffffffffffffffffffffffffffffff021916908373ffffffffffffffffffffffffffffffffffffffff1602179055506020820151816001015560408201518160020155606082015181600301556080820151816004015560a08201518160050160006101000a81548160ff02191690831515021790555060c0820151816006015560e0820151816007015590505050506200050f565b60008060009054906101000a900473ffffffffffffffffffffffffffffffffffffffff169050816000806101000a81548173ffffffffffffffffffffffffffffffffffffffff021916908373ffffffffffffffffffffffffffffffffffffffff1602179055508173ffffffffffffffffffffffffffffffffffffffff168173ffffffffffffffffffffffffffffffffffffffff167f8be0079c531659141344cd1fd0a4f28419497f9722a3daafe3b4186f6b6457e060405160405180910390a35050565b6000604051905090565b600080fd5b600073ffffffffffffffffffffffffffffffffffffffff82169050919050565b6000620002708262000243565b9050919050565b620002828162000263565b81146200028e57600080fd5b50565b600081519050620002a28162000277565b92915050565b600080fd5b6000601f19601f8301169050919050565b7f4e487b7100000000000000000000000000000000000000000000000000000000600052604160045260246000fd5b620002f882620002ad565b810181811067ffffffffffffffff821117156200031a5762000319620002be565b5b80604052505050565b60006200032f62000234565b90506200033d8282620002ed565b919050565b6000819050919050565b620003578162000342565b81146200036357600080fd5b50565b60008151905062000377816200034c565b92915050565b60008115159050919050565b62000394816200037d565b8114620003a057600080fd5b50565b600081519050620003b48162000389565b92915050565b60006101008284031215620003d457620003d3620002a8565b5b620003e161010062000323565b90506000620003f38482850162000291565b6000830152506020620004098482850162000366565b60208301525060406200041f8482850162000366565b6040830152506060620004358482850162000366565b60608301525060806200044b8482850162000366565b60808301525060a06200046184828501620003a3565b60a08301525060c0620004778482850162000366565b60c08301525060e06200048d8482850162000366565b60e08301525092915050565b6000806101208385031215620004b457620004b36200023e565b5b6000620004c48582860162000291565b9250506020620004d785828601620003ba565b9150509250929050565b620004ec8162000263565b82525050565b6000602082019050620005096000830184620004e1565b92915050565b6107b3806200051f6000396000f3fe608060405234801561001057600080fd5b50600436106100625760003560e01c80632afcf4801461006757806368beab3f14610083578063715018a6146100a85780638da5cb5b146100b2578063b7ba1b1e146100d0578063f2fde38b14610100575b600080fd5b610081600480360381019061007c91906104e5565b61011c565b005b61008b61022a565b60405161009f98979695949392919061057d565b60405180910390f35b6100b061028d565b005b6100ba6102a1565b6040516100c791906105fb565b60405180910390f35b6100ea60048036038101906100e59190610642565b6102ca565b6040516100f7919061066f565b60405180910390f35b61011a60048036038101906101159190610642565b6102d1565b005b6000600160000160009054906101000a900473ffffffffffffffffffffffffffffffffffffffff1690508073ffffffffffffffffffffffffffffffffffffffff166323b872dd3330856040518463ffffffff1660e01b81526004016101839392919061068a565b6020604051808303816000875af11580156101a2573d6000803e3d6000fd5b505050506040513d601f19601f820116820180604052508101906101c691906106ed565b506000600960003373ffffffffffffffffffffffffffffffffffffffff1673ffffffffffffffffffffffffffffffffffffffff16815260200190815260200160002090508281600001600082825461021e9190610749565b92505081905550505050565b60018060000160009054906101000a900473ffffffffffffffffffffffffffffffffffffffff16908060010154908060020154908060030154908060040154908060050160009054906101000a900460ff16908060060154908060070154905088565b610295610357565b61029f60006103de565b565b60008060009054906101000a900473ffffffffffffffffffffffffffffffffffffffff16905090565b6000919050565b6102d9610357565b600073ffffffffffffffffffffffffffffffffffffffff168173ffffffffffffffffffffffffffffffffffffffff160361034b5760006040517f1e4fbdf700000000000000000000000000000000000000000000000000000000815260040161034291906105fb565b60405180910390fd5b610354816103de565b50565b61035f6104a2565b73ffffffffffffffffffffffffffffffffffffffff1661037d6102a1565b73ffffffffffffffffffffffffffffffffffffffff16146103dc576103a06104a2565b6040517f118cdaa70000000000000000000000000000000000000000000000000000000081526004016103d391906105fb565b60405180910390fd5b565b60008060009054906101000a900473ffffffffffffffffffffffffffffffffffffffff169050816000806101000a81548173ffffffffffffffffffffffffffffffffffffffff021916908373ffffffffffffffffffffffffffffffffffffffff1602179055508173ffffffffffffffffffffffffffffffffffffffff168173ffffffffffffffffffffffffffffffffffffffff167f8be0079c531659141344cd1fd0a4f28419497f9722a3daafe3b4186f6b6457e060405160405180910390a35050565b600033905090565b600080fd5b6000819050919050565b6104c2816104af565b81146104cd57600080fd5b50565b6000813590506104df816104b9565b92915050565b6000602082840312156104fb576104fa6104aa565b5b6000610509848285016104d0565b91505092915050565b600073ffffffffffffffffffffffffffffffffffffffff82169050919050565b600061053d82610512565b9050919050565b61054d81610532565b82525050565b61055c816104af565b82525050565b60008115159050919050565b61057781610562565b82525050565b600061010082019050610593600083018b610544565b6105a0602083018a610553565b6105ad6040830189610553565b6105ba6060830188610553565b6105c76080830187610553565b6105d460a083018661056e565b6105e160c0830185610553565b6105ee60e0830184610553565b9998505050505050505050565b60006020820190506106106000830184610544565b92915050565b61061f81610532565b811461062a57600080fd5b50565b60008135905061063c81610616565b92915050565b600060208284031215610658576106576104aa565b5b60006106668482850161062d565b91505092915050565b60006020820190506106846000830184610553565b92915050565b600060608201905061069f6000830186610544565b6106ac6020830185610544565b6106b96040830184610553565b949350505050565b6106ca81610562565b81146106d557600080fd5b50565b6000815190506106e7816106c1565b92915050565b600060208284031215610703576107026104aa565b5b6000610711848285016106d8565b91505092915050565b7f4e487b7100000000000000000000000000000000000000000000000000000000600052601160045260246000fd5b6000610754826104af565b915061075f836104af565b92508282019050808211156107775761077661071a565b5b9291505056fea264697066735822122093836c704220e5da89dfbe8568314d5d407de8f82d14bee20b205bf204e241bb64736f6c63430008180033a2646970667358221220733de7c02577f026f63cf091d150c0cffa2a30ea2263f0a0bae1c395da9a492e64736f6c63430008180033",
  "linkReferences": {},
  "deployedLinkReferences": {}
}