{
  "_format": "hh-sol-artifact-1",
  "contractName": "APCampaign",
  "sourceName": "contracts/Campaign/APCampaign.sol",
  "abi": [
    {
      "inputs": [
        {
          "internalType": "address",
          "name": "initialOwner",
          "type": "address"
        },
        {
          "components": [
            {
              "internalType": "address",
              "name": "investToken",
              "type": "address"
            },
            {
              "internalType": "uint256",
              "name": "presaleRate",
              "type": "uint256"
            },
            {
              "internalType": "uint256",
              "name": "targetSaleAmount",
              "type": "uint256"
            },
            {
              "internalType": "uint256",
              "name": "minBuy",
              "type": "uint256"
            },
            {
              "internalType": "uint256",
              "name": "maxBuy",
              "type": "uint256"
            },
            {
              "internalType": "bool",
              "name": "isRefundable",
              "type": "bool"
            },
            {
              "internalType": "uint256",
              "name": "saleStartTime",
              "type": "uint256"
            },
            {
              "internalType": "uint256",
              "name": "saleEndTime",
              "type": "uint256"
            }
          ],
          "internalType": "struct CampaignData",
          "name": "data",
          "type": "tuple"
        }
      ],
      "stateMutability": "nonpayable",
      "type": "constructor"
    },
    {
      "inputs": [
        {
          "internalType": "address",
          "name": "owner",
          "type": "address"
        }
      ],
      "name": "OwnableInvalidOwner",
      "type": "error"
    },
    {
      "inputs": [
        {
          "internalType": "address",
          "name": "account",
          "type": "address"
        }
      ],
      "name": "OwnableUnauthorizedAccount",
      "type": "error"
    },
    {
      "anonymous": false,
      "inputs": [
        {
          "indexed": true,
          "internalType": "address",
          "name": "previousOwner",
          "type": "address"
        },
        {
          "indexed": true,
          "internalType": "address",
          "name": "newOwner",
          "type": "address"
        }
      ],
      "name": "OwnershipTransferred",
      "type": "event"
    },
    {
      "inputs": [],
      "name": "_data",
      "outputs": [
        {
          "internalType": "address",
          "name": "investToken",
          "type": "address"
        },
        {
          "internalType": "uint256",
          "name": "presaleRate",
          "type": "uint256"
        },
        {
          "internalType": "uint256",
          "name": "targetSaleAmount",
          "type": "uint256"
        },
        {
          "internalType": "uint256",
          "name": "minBuy",
          "type": "uint256"
        },
        {
          "internalType": "uint256",
          "name": "maxBuy",
          "type": "uint256"
        },
        {
          "internalType": "bool",
          "name": "isRefundable",
          "type": "bool"
        },
        {
          "internalType": "uint256",
          "name": "saleStartTime",
          "type": "uint256"
        },
        {
          "internalType": "uint256",
          "name": "saleEndTime",
          "type": "uint256"
        }
      ],
      "stateMutability": "view",
      "type": "function"
    },
    {
      "inputs": [
        {
          "internalType": "uint256",
          "name": "amount",
          "type": "uint256"
        }
      ],
      "name": "invest",
      "outputs": [],
      "stateMutability": "nonpayable",
      "type": "function"
    },
    {
      "inputs": [],
      "name": "owner",
      "outputs": [
        {
          "internalType": "address",
          "name": "",
          "type": "address"
        }
      ],
      "stateMutability": "view",
      "type": "function"
    },
    {
      "inputs": [
        {
          "internalType": "address",
          "name": "investor",
          "type": "address"
        }
      ],
      "name": "queryClaimableAmount",
      "outputs": [
        {
          "internalType": "uint256",
          "name": "",
          "type": "uint256"
        }
      ],
      "stateMutability": "view",
      "type": "function"
    },
    {
      "inputs": [],
      "name": "renounceOwnership",
      "outputs": [],
      "stateMutability": "nonpayable",
      "type": "function"
    },
    {
      "inputs": [
        {
          "internalType": "address",
          "name": "newOwner",
          "type": "address"
        }
      ],
      "name": "transferOwnership",
      "outputs": [],
      "stateMutability": "nonpayable",
      "type": "function"
    }
  ],
  "bytecode": "0x60806040523480156200001157600080fd5b5060405162000cd238038062000cd2833981810160405281019062000037919062000499565b81600073ffffffffffffffffffffffffffffffffffffffff168173ffffffffffffffffffffffffffffffffffffffff1603620000ad5760006040517f1e4fbdf7000000000000000000000000000000000000000000000000000000008152600401620000a49190620004f2565b60405180910390fd5b620000be816200017060201b60201c565b5080600160008201518160000160006101000a81548173ffffffffffffffffffffffffffffffffffffffff021916908373ffffffffffffffffffffffffffffffffffffffff1602179055506020820151816001015560408201518160020155606082015181600301556080820151816004015560a08201518160050160006101000a81548160ff02191690831515021790555060c0820151816006015560e0820151816007015590505050506200050f565b60008060009054906101000a900473ffffffffffffffffffffffffffffffffffffffff169050816000806101000a81548173ffffffffffffffffffffffffffffffffffffffff021916908373ffffffffffffffffffffffffffffffffffffffff1602179055508173ffffffffffffffffffffffffffffffffffffffff168173ffffffffffffffffffffffffffffffffffffffff167f8be0079c531659141344cd1fd0a4f28419497f9722a3daafe3b4186f6b6457e060405160405180910390a35050565b6000604051905090565b600080fd5b600073ffffffffffffffffffffffffffffffffffffffff82169050919050565b6000620002708262000243565b9050919050565b620002828162000263565b81146200028e57600080fd5b50565b600081519050620002a28162000277565b92915050565b600080fd5b6000601f19601f8301169050919050565b7f4e487b7100000000000000000000000000000000000000000000000000000000600052604160045260246000fd5b620002f882620002ad565b810181811067ffffffffffffffff821117156200031a5762000319620002be565b5b80604052505050565b60006200032f62000234565b90506200033d8282620002ed565b919050565b6000819050919050565b620003578162000342565b81146200036357600080fd5b50565b60008151905062000377816200034c565b92915050565b60008115159050919050565b62000394816200037d565b8114620003a057600080fd5b50565b600081519050620003b48162000389565b92915050565b60006101008284031215620003d457620003d3620002a8565b5b620003e161010062000323565b90506000620003f38482850162000291565b6000830152506020620004098482850162000366565b60208301525060406200041f8482850162000366565b6040830152506060620004358482850162000366565b60608301525060806200044b8482850162000366565b60808301525060a06200046184828501620003a3565b60a08301525060c0620004778482850162000366565b60c08301525060e06200048d8482850162000366565b60e08301525092915050565b6000806101208385031215620004b457620004b36200023e565b5b6000620004c48582860162000291565b9250506020620004d785828601620003ba565b9150509250929050565b620004ec8162000263565b82525050565b6000602082019050620005096000830184620004e1565b92915050565b6107b3806200051f6000396000f3fe608060405234801561001057600080fd5b50600436106100625760003560e01c80632afcf4801461006757806368beab3f14610083578063715018a6146100a85780638da5cb5b146100b2578063b7ba1b1e146100d0578063f2fde38b14610100575b600080fd5b610081600480360381019061007c91906104e5565b61011c565b005b61008b61022a565b60405161009f98979695949392919061057d565b60405180910390f35b6100b061028d565b005b6100ba6102a1565b6040516100c791906105fb565b60405180910390f35b6100ea60048036038101906100e59190610642565b6102ca565b6040516100f7919061066f565b60405180910390f35b61011a60048036038101906101159190610642565b6102d1565b005b6000600160000160009054906101000a900473ffffffffffffffffffffffffffffffffffffffff1690508073ffffffffffffffffffffffffffffffffffffffff166323b872dd3330856040518463ffffffff1660e01b81526004016101839392919061068a565b6020604051808303816000875af11580156101a2573d6000803e3d6000fd5b505050506040513d601f19601f820116820180604052508101906101c691906106ed565b506000600960003373ffffffffffffffffffffffffffffffffffffffff1673ffffffffffffffffffffffffffffffffffffffff16815260200190815260200160002090508281600001600082825461021e9190610749565b92505081905550505050565b60018060000160009054906101000a900473ffffffffffffffffffffffffffffffffffffffff16908060010154908060020154908060030154908060040154908060050160009054906101000a900460ff16908060060154908060070154905088565b610295610357565b61029f60006103de565b565b60008060009054906101000a900473ffffffffffffffffffffffffffffffffffffffff16905090565b6000919050565b6102d9610357565b600073ffffffffffffffffffffffffffffffffffffffff168173ffffffffffffffffffffffffffffffffffffffff160361034b5760006040517f1e4fbdf700000000000000000000000000000000000000000000000000000000815260040161034291906105fb565b60405180910390fd5b610354816103de565b50565b61035f6104a2565b73ffffffffffffffffffffffffffffffffffffffff1661037d6102a1565b73ffffffffffffffffffffffffffffffffffffffff16146103dc576103a06104a2565b6040517f118cdaa70000000000000000000000000000000000000000000000000000000081526004016103d391906105fb565b60405180910390fd5b565b60008060009054906101000a900473ffffffffffffffffffffffffffffffffffffffff169050816000806101000a81548173ffffffffffffffffffffffffffffffffffffffff021916908373ffffffffffffffffffffffffffffffffffffffff1602179055508173ffffffffffffffffffffffffffffffffffffffff168173ffffffffffffffffffffffffffffffffffffffff167f8be0079c531659141344cd1fd0a4f28419497f9722a3daafe3b4186f6b6457e060405160405180910390a35050565b600033905090565b600080fd5b6000819050919050565b6104c2816104af565b81146104cd57600080fd5b50565b6000813590506104df816104b9565b92915050565b6000602082840312156104fb576104fa6104aa565b5b6000610509848285016104d0565b91505092915050565b600073ffffffffffffffffffffffffffffffffffffffff82169050919050565b600061053d82610512565b9050919050565b61054d81610532565b82525050565b61055c816104af565b82525050565b60008115159050919050565b61057781610562565b82525050565b600061010082019050610593600083018b610544565b6105a0602083018a610553565b6105ad6040830189610553565b6105ba6060830188610553565b6105c76080830187610553565b6105d460a083018661056e565b6105e160c0830185610553565b6105ee60e0830184610553565b9998505050505050505050565b60006020820190506106106000830184610544565b92915050565b61061f81610532565b811461062a57600080fd5b50565b60008135905061063c81610616565b92915050565b600060208284031215610658576106576104aa565b5b60006106668482850161062d565b91505092915050565b60006020820190506106846000830184610553565b92915050565b600060608201905061069f6000830186610544565b6106ac6020830185610544565b6106b96040830184610553565b949350505050565b6106ca81610562565b81146106d557600080fd5b50565b6000815190506106e7816106c1565b92915050565b600060208284031215610703576107026104aa565b5b6000610711848285016106d8565b91505092915050565b7f4e487b7100000000000000000000000000000000000000000000000000000000600052601160045260246000fd5b6000610754826104af565b915061075f836104af565b92508282019050808211156107775761077661071a565b5b9291505056fea264697066735822122093836c704220e5da89dfbe8568314d5d407de8f82d14bee20b205bf204e241bb64736f6c63430008180033",
  "linkReferences": {},
  "deployedLinkReferences": {}
}