{
  "_format": "hh-sol-artifact-1",
  "contractName": "APLock",
  "sourceName": "contracts/Lock/APLock.sol",
  "abi": [
    {
      "inputs": [
        {
          "internalType": "address",
          "name": "initialOwner",
          "type": "address"
        }
      ],
      "stateMutability": "nonpayable",
      "type": "constructor"
    },
    {
      "inputs": [
        {
          "internalType": "address",
          "name": "owner",
          "type": "address"
        }
      ],
      "name": "OwnableInvalidOwner",
      "type": "error"
    },
    {
      "inputs": [
        {
          "internalType": "address",
          "name": "account",
          "type": "address"
        }
      ],
      "name": "OwnableUnauthorizedAccount",
      "type": "error"
    },
    {
      "anonymous": false,
      "inputs": [
        {
          "indexed": false,
          "internalType": "address",
          "name": "currency",
          "type": "address"
        },
        {
          "indexed": false,
          "internalType": "address",
          "name": "owner",
          "type": "address"
        },
        {
          "indexed": false,
          "internalType": "address",
          "name": "factory",
          "type": "address"
        },
        {
          "indexed": false,
          "internalType": "uint256",
          "name": "amount",
          "type": "uint256"
        },
        {
          "indexed": false,
          "internalType": "uint256",
          "name": "startTime",
          "type": "uint256"
        },
        {
          "indexed": false,
          "internalType": "uint256",
          "name": "endTime",
          "type": "uint256"
        },
        {
          "indexed": false,
          "internalType": "uint256",
          "name": "lockId",
          "type": "uint256"
        }
      ],
      "name": "LockAdded",
      "type": "event"
    },
    {
      "anonymous": false,
      "inputs": [
        {
          "indexed": false,
          "internalType": "address",
          "name": "currency",
          "type": "address"
        },
        {
          "indexed": false,
          "internalType": "address",
          "name": "owner",
          "type": "address"
        },
        {
          "indexed": false,
          "internalType": "address",
          "name": "factory",
          "type": "address"
        },
        {
          "indexed": false,
          "internalType": "uint256",
          "name": "amount",
          "type": "uint256"
        },
        {
          "indexed": false,
          "internalType": "uint256",
          "name": "startTime",
          "type": "uint256"
        },
        {
          "indexed": false,
          "internalType": "uint256",
          "name": "endTime",
          "type": "uint256"
        },
        {
          "indexed": false,
          "internalType": "uint256",
          "name": "lockId",
          "type": "uint256"
        }
      ],
      "name": "LockUpdated",
      "type": "event"
    },
    {
      "anonymous": false,
      "inputs": [
        {
          "indexed": true,
          "internalType": "address",
          "name": "previousOwner",
          "type": "address"
        },
        {
          "indexed": true,
          "internalType": "address",
          "name": "newOwner",
          "type": "address"
        }
      ],
      "name": "OwnershipTransferStarted",
      "type": "event"
    },
    {
      "anonymous": false,
      "inputs": [
        {
          "indexed": true,
          "internalType": "address",
          "name": "previousOwner",
          "type": "address"
        },
        {
          "indexed": true,
          "internalType": "address",
          "name": "newOwner",
          "type": "address"
        }
      ],
      "name": "OwnershipTransferred",
      "type": "event"
    },
    {
      "anonymous": false,
      "inputs": [
        {
          "indexed": false,
          "internalType": "address",
          "name": "currency",
          "type": "address"
        },
        {
          "indexed": false,
          "internalType": "address",
          "name": "owner",
          "type": "address"
        },
        {
          "indexed": false,
          "internalType": "address",
          "name": "factory",
          "type": "address"
        },
        {
          "indexed": false,
          "internalType": "uint256",
          "name": "amount",
          "type": "uint256"
        },
        {
          "indexed": false,
          "internalType": "uint256",
          "name": "startTime",
          "type": "uint256"
        },
        {
          "indexed": false,
          "internalType": "uint256",
          "name": "endTime",
          "type": "uint256"
        },
        {
          "indexed": false,
          "internalType": "uint256",
          "name": "lockId",
          "type": "uint256"
        }
      ],
      "name": "Unlocked",
      "type": "event"
    },
    {
      "inputs": [],
      "name": "acceptOwnership",
      "outputs": [],
      "stateMutability": "nonpayable",
      "type": "function"
    },
    {
      "inputs": [
        {
          "internalType": "uint256",
          "name": "lockId",
          "type": "uint256"
        },
        {
          "internalType": "uint256",
          "name": "newAmount",
          "type": "uint256"
        },
        {
          "internalType": "uint256",
          "name": "newEndTime",
          "type": "uint256"
        }
      ],
      "name": "editTokensLock",
      "outputs": [
        {
          "internalType": "bool",
          "name": "",
          "type": "bool"
        }
      ],
      "stateMutability": "nonpayable",
      "type": "function"
    },
    {
      "inputs": [
        {
          "internalType": "address",
          "name": "_currency",
          "type": "address"
        },
        {
          "internalType": "address",
          "name": "_owner",
          "type": "address"
        },
        {
          "internalType": "uint256",
          "name": "amount",
          "type": "uint256"
        },
        {
          "internalType": "uint256",
          "name": "endTime",
          "type": "uint256"
        },
        {
          "internalType": "bool",
          "name": "isLPToken",
          "type": "bool"
        }
      ],
      "name": "lockTokens",
      "outputs": [
        {
          "internalType": "bool",
          "name": "",
          "type": "bool"
        }
      ],
      "stateMutability": "nonpayable",
      "type": "function"
    },
    {
      "inputs": [
        {
          "internalType": "uint256",
          "name": "",
          "type": "uint256"
        }
      ],
      "name": "locks",
      "outputs": [
        {
          "internalType": "address",
          "name": "currency",
          "type": "address"
        },
        {
          "internalType": "address",
          "name": "owner",
          "type": "address"
        },
        {
          "internalType": "address",
          "name": "factory",
          "type": "address"
        },
        {
          "internalType": "uint256",
          "name": "amount",
          "type": "uint256"
        },
        {
          "internalType": "uint256",
          "name": "startTime",
          "type": "uint256"
        },
        {
          "internalType": "uint256",
          "name": "endTime",
          "type": "uint256"
        }
      ],
      "stateMutability": "view",
      "type": "function"
    },
    {
      "inputs": [],
      "name": "owner",
      "outputs": [
        {
          "internalType": "address",
          "name": "",
          "type": "address"
        }
      ],
      "stateMutability": "view",
      "type": "function"
    },
    {
      "inputs": [],
      "name": "pendingOwner",
      "outputs": [
        {
          "internalType": "address",
          "name": "",
          "type": "address"
        }
      ],
      "stateMutability": "view",
      "type": "function"
    },
    {
      "inputs": [],
      "name": "renounceOwnership",
      "outputs": [],
      "stateMutability": "nonpayable",
      "type": "function"
    },
    {
      "inputs": [
        {
          "internalType": "address",
          "name": "newOwner",
          "type": "address"
        }
      ],
      "name": "transferOwnership",
      "outputs": [],
      "stateMutability": "nonpayable",
      "type": "function"
    },
    {
      "inputs": [
        {
          "internalType": "uint256",
          "name": "lockId",
          "type": "uint256"
        }
      ],
      "name": "unlockTokens",
      "outputs": [
        {
          "internalType": "bool",
          "name": "",
          "type": "bool"
        }
      ],
      "stateMutability": "nonpayable",
      "type": "function"
    }
  ],
  "bytecode": "0x60806040523480156200001157600080fd5b5060405162001ece38038062001ece83398181016040528101906200003791906200022d565b80600073ffffffffffffffffffffffffffffffffffffffff168173ffffffffffffffffffffffffffffffffffffffff1603620000ad5760006040517f1e4fbdf7000000000000000000000000000000000000000000000000000000008152600401620000a4919062000270565b60405180910390fd5b620000be81620000c660201b60201c565b50506200028d565b600160006101000a81549073ffffffffffffffffffffffffffffffffffffffff0219169055620000fc81620000ff60201b60201c565b50565b60008060009054906101000a900473ffffffffffffffffffffffffffffffffffffffff169050816000806101000a81548173ffffffffffffffffffffffffffffffffffffffff021916908373ffffffffffffffffffffffffffffffffffffffff1602179055508173ffffffffffffffffffffffffffffffffffffffff168173ffffffffffffffffffffffffffffffffffffffff167f8be0079c531659141344cd1fd0a4f28419497f9722a3daafe3b4186f6b6457e060405160405180910390a35050565b600080fd5b600073ffffffffffffffffffffffffffffffffffffffff82169050919050565b6000620001f582620001c8565b9050919050565b6200020781620001e8565b81146200021357600080fd5b50565b6000815190506200022781620001fc565b92915050565b600060208284031215620002465762000245620001c3565b5b6000620002568482850162000216565b91505092915050565b6200026a81620001e8565b82525050565b60006020820190506200028760008301846200025f565b92915050565b611c31806200029d6000396000f3fe608060405234801561001057600080fd5b50600436106100935760003560e01c80637c405325116100665780637c4053251461010c5780638da5cb5b1461013c578063e30c39781461015a578063f2fde38b14610178578063f4dadc611461019457610093565b806316662b32146100985780634e4073f1146100c8578063715018a6146100f857806379ba509714610102575b600080fd5b6100b260048036038101906100ad91906113e7565b6101c9565b6040516100bf9190611471565b60405180910390f35b6100e260048036038101906100dd919061148c565b6104aa565b6040516100ef9190611471565b60405180910390f35b610100610732565b005b61010a610746565b005b610126600480360381019061012191906114df565b6107d5565b6040516101339190611471565b60405180910390f35b610144610b63565b604051610151919061151b565b60405180910390f35b610162610b8c565b60405161016f919061151b565b60405180910390f35b610192600480360381019061018d9190611536565b610bb6565b005b6101ae60048036038101906101a991906114df565b610c63565b6040516101c096959493929190611572565b60405180910390f35b6000806101f5338873ffffffffffffffffffffffffffffffffffffffff16610cff90919063ffffffff16565b90508085111561023a576040517f08c379a000000000000000000000000000000000000000000000000000000000815260040161023190611656565b60405180910390fd5b42841161027c576040517f08c379a0000000000000000000000000000000000000000000000000000000008152600401610273906116e8565b60405180910390fd5b6000600360006002548152602001908152602001600020905083156103075760006102bc8973ffffffffffffffffffffffffffffffffffffffff16610d83565b9050808260020160006101000a81548173ffffffffffffffffffffffffffffffffffffffff021916908373ffffffffffffffffffffffffffffffffffffffff1602179055505061034c565b60008160020160006101000a81548173ffffffffffffffffffffffffffffffffffffffff021916908373ffffffffffffffffffffffffffffffffffffffff1602179055505b428160040181905550848160050181905550858160030181905550878160000160006101000a81548173ffffffffffffffffffffffffffffffffffffffff021916908373ffffffffffffffffffffffffffffffffffffffff160217905550338160010160006101000a81548173ffffffffffffffffffffffffffffffffffffffff021916908373ffffffffffffffffffffffffffffffffffffffff16021790555061041a3330888b73ffffffffffffffffffffffffffffffffffffffff16610e7e909392919063ffffffff16565b7f8b3c7de24543062b1adef6d779d7d0253f096711d0352cefb281df25f998d22b88888360020160009054906101000a900473ffffffffffffffffffffffffffffffffffffffff1689428a60025460405161047b9796959493929190611708565b60405180910390a160026000815480929190610496906117a6565b919050555060019250505095945050505050565b60006002548411156104bb57600080fd5b60006003600086815260200190815260200160002090503373ffffffffffffffffffffffffffffffffffffffff168160010160009054906101000a900473ffffffffffffffffffffffffffffffffffffffff1673ffffffffffffffffffffffffffffffffffffffff1614610564576040517f08c379a000000000000000000000000000000000000000000000000000000000815260040161055b9061183a565b60405180910390fd5b806003015484101580156105785750600084115b6105b7576040517f08c379a00000000000000000000000000000000000000000000000000000000081526004016105ae90611880565b60405180910390fd5b806005015483101580156105ca57504283115b610609576040517f08c379a000000000000000000000000000000000000000000000000000000000815260040161060090611912565b60405180910390fd5b60008160030154850390506000811161062157600080fd5b6106723330838560000160009054906101000a900473ffffffffffffffffffffffffffffffffffffffff1673ffffffffffffffffffffffffffffffffffffffff16610e7e909392919063ffffffff16565b7ff3fef0163600fbd51ee412132c639db277bd29f306cbc24e6fee5395131476138260000160009054906101000a900473ffffffffffffffffffffffffffffffffffffffff168360010160009054906101000a900473ffffffffffffffffffffffffffffffffffffffff168460020160009054906101000a900473ffffffffffffffffffffffffffffffffffffffff16888660040154898c60405161071d9796959493929190611708565b60405180910390a16001925050509392505050565b61073a610f49565b6107446000610fd0565b565b6000610750611001565b90508073ffffffffffffffffffffffffffffffffffffffff16610771610b8c565b73ffffffffffffffffffffffffffffffffffffffff16146107c957806040517f118cdaa70000000000000000000000000000000000000000000000000000000081526004016107c0919061151b565b60405180910390fd5b6107d281610fd0565b50565b60006002548211156107e657600080fd5b6000600360008481526020019081526020016000206040518060c00160405290816000820160009054906101000a900473ffffffffffffffffffffffffffffffffffffffff1673ffffffffffffffffffffffffffffffffffffffff1673ffffffffffffffffffffffffffffffffffffffff1681526020016001820160009054906101000a900473ffffffffffffffffffffffffffffffffffffffff1673ffffffffffffffffffffffffffffffffffffffff1673ffffffffffffffffffffffffffffffffffffffff1681526020016002820160009054906101000a900473ffffffffffffffffffffffffffffffffffffffff1673ffffffffffffffffffffffffffffffffffffffff1673ffffffffffffffffffffffffffffffffffffffff168152602001600382015481526020016004820154815260200160058201548152505090503373ffffffffffffffffffffffffffffffffffffffff16816020015173ffffffffffffffffffffffffffffffffffffffff161461099a576040517f08c379a00000000000000000000000000000000000000000000000000000000081526004016109919061183a565b60405180910390fd5b60008160600151116109e1576040517f08c379a00000000000000000000000000000000000000000000000000000000081526004016109d89061197e565b60405180910390fd5b428160a001511115610a28576040517f08c379a0000000000000000000000000000000000000000000000000000000008152600401610a1f906119ea565b60405180910390fd5b610a5b338260600151836000015173ffffffffffffffffffffffffffffffffffffffff166110099092919063ffffffff16565b7ff3fef0163600fbd51ee412132c639db277bd29f306cbc24e6fee539513147613816000015182602001518360400151846060015185608001518660a0015189604051610aae9796959493929190611708565b60405180910390a160036000848152602001908152602001600020600080820160006101000a81549073ffffffffffffffffffffffffffffffffffffffff02191690556001820160006101000a81549073ffffffffffffffffffffffffffffffffffffffff02191690556002820160006101000a81549073ffffffffffffffffffffffffffffffffffffffff021916905560038201600090556004820160009055600582016000905550506001915050919050565b60008060009054906101000a900473ffffffffffffffffffffffffffffffffffffffff16905090565b6000600160009054906101000a900473ffffffffffffffffffffffffffffffffffffffff16905090565b610bbe610f49565b80600160006101000a81548173ffffffffffffffffffffffffffffffffffffffff021916908373ffffffffffffffffffffffffffffffffffffffff1602179055508073ffffffffffffffffffffffffffffffffffffffff16610c1e610b63565b73ffffffffffffffffffffffffffffffffffffffff167f38d16b8cac22d99fc7c124b9cd0de2d3fa1faef420bfe791d8c362d765e2270060405160405180910390a350565b60036020528060005260406000206000915090508060000160009054906101000a900473ffffffffffffffffffffffffffffffffffffffff16908060010160009054906101000a900473ffffffffffffffffffffffffffffffffffffffff16908060020160009054906101000a900473ffffffffffffffffffffffffffffffffffffffff16908060030154908060040154908060050154905086565b60008273ffffffffffffffffffffffffffffffffffffffff166370a08231836040518263ffffffff1660e01b8152600401610d3a919061151b565b602060405180830381865afa158015610d57573d6000803e3d6000fd5b505050506040513d601f19601f82011682018060405250810190610d7b9190611a1f565b905092915050565b60008173ffffffffffffffffffffffffffffffffffffffff1663c45a01556040518163ffffffff1660e01b8152600401602060405180830381865afa925050508015610ded57506040513d601f19601f82011682018060405250810190610dea9190611a61565b60015b610e2c576040517f08c379a0000000000000000000000000000000000000000000000000000000008152600401610e2390611ada565b60405180910390fd5b610e3683826110b7565b610e75576040517f08c379a0000000000000000000000000000000000000000000000000000000008152600401610e6c90611ada565b60405180910390fd5b80915050919050565b60006040517f23b872dd00000000000000000000000000000000000000000000000000000000815273ffffffffffffffffffffffffffffffffffffffff8516600482015273ffffffffffffffffffffffffffffffffffffffff841660248201528260448201526020600060648360008a5af13d15601f3d1160016000511416171691505080610f42576040517f08c379a0000000000000000000000000000000000000000000000000000000008152600401610f3990611b46565b60405180910390fd5b5050505050565b610f51611001565b73ffffffffffffffffffffffffffffffffffffffff16610f6f610b63565b73ffffffffffffffffffffffffffffffffffffffff1614610fce57610f92611001565b6040517f118cdaa7000000000000000000000000000000000000000000000000000000008152600401610fc5919061151b565b60405180910390fd5b565b600160006101000a81549073ffffffffffffffffffffffffffffffffffffffff0219169055610ffe81611252565b50565b600033905090565b60006040517fa9059cbb00000000000000000000000000000000000000000000000000000000815273ffffffffffffffffffffffffffffffffffffffff84166004820152826024820152602060006044836000895af13d15601f3d11600160005114161716915050806110b1576040517f08c379a00000000000000000000000000000000000000000000000000000000081526004016110a890611bb2565b60405180910390fd5b50505050565b60008083905060008373ffffffffffffffffffffffffffffffffffffffff1663e6a439058373ffffffffffffffffffffffffffffffffffffffff16630dfe16816040518163ffffffff1660e01b8152600401602060405180830381865afa158015611126573d6000803e3d6000fd5b505050506040513d601f19601f8201168201806040525081019061114a9190611a61565b8473ffffffffffffffffffffffffffffffffffffffff1663d21220a76040518163ffffffff1660e01b8152600401602060405180830381865afa158015611195573d6000803e3d6000fd5b505050506040513d601f19601f820116820180604052508101906111b99190611a61565b6040518363ffffffff1660e01b81526004016111d6929190611bd2565b602060405180830381865afa1580156111f3573d6000803e3d6000fd5b505050506040513d601f19601f820116820180604052508101906112179190611a61565b90508473ffffffffffffffffffffffffffffffffffffffff168173ffffffffffffffffffffffffffffffffffffffff16149250505092915050565b60008060009054906101000a900473ffffffffffffffffffffffffffffffffffffffff169050816000806101000a81548173ffffffffffffffffffffffffffffffffffffffff021916908373ffffffffffffffffffffffffffffffffffffffff1602179055508173ffffffffffffffffffffffffffffffffffffffff168173ffffffffffffffffffffffffffffffffffffffff167f8be0079c531659141344cd1fd0a4f28419497f9722a3daafe3b4186f6b6457e060405160405180910390a35050565b600080fd5b600073ffffffffffffffffffffffffffffffffffffffff82169050919050565b60006113468261131b565b9050919050565b6113568161133b565b811461136157600080fd5b50565b6000813590506113738161134d565b92915050565b6000819050919050565b61138c81611379565b811461139757600080fd5b50565b6000813590506113a981611383565b92915050565b60008115159050919050565b6113c4816113af565b81146113cf57600080fd5b50565b6000813590506113e1816113bb565b92915050565b600080600080600060a0868803121561140357611402611316565b5b600061141188828901611364565b955050602061142288828901611364565b94505060406114338882890161139a565b93505060606114448882890161139a565b9250506080611455888289016113d2565b9150509295509295909350565b61146b816113af565b82525050565b60006020820190506114866000830184611462565b92915050565b6000806000606084860312156114a5576114a4611316565b5b60006114b38682870161139a565b93505060206114c48682870161139a565b92505060406114d58682870161139a565b9150509250925092565b6000602082840312156114f5576114f4611316565b5b60006115038482850161139a565b91505092915050565b6115158161133b565b82525050565b6000602082019050611530600083018461150c565b92915050565b60006020828403121561154c5761154b611316565b5b600061155a84828501611364565b91505092915050565b61156c81611379565b82525050565b600060c082019050611587600083018961150c565b611594602083018861150c565b6115a1604083018761150c565b6115ae6060830186611563565b6115bb6080830185611563565b6115c860a0830184611563565b979650505050505050565b600082825260208201905092915050565b7f416d6f756e74206d7573742062652067726561746572207468616e206f776e6560008201527f722062616c616e63652e00000000000000000000000000000000000000000000602082015250565b6000611640602a836115d3565b915061164b826115e4565b604082019050919050565b6000602082019050818103600083015261166f81611633565b9050919050565b7f456e642074696d65206d7573742062652067726561746572207468616e20626c60008201527f6f636b2074696d657374616d702e000000000000000000000000000000000000602082015250565b60006116d2602e836115d3565b91506116dd82611676565b604082019050919050565b60006020820190508181036000830152611701816116c5565b9050919050565b600060e08201905061171d600083018a61150c565b61172a602083018961150c565b611737604083018861150c565b6117446060830187611563565b6117516080830186611563565b61175e60a0830185611563565b61176b60c0830184611563565b98975050505050505050565b7f4e487b7100000000000000000000000000000000000000000000000000000000600052601160045260246000fd5b60006117b182611379565b91507fffffffffffffffffffffffffffffffffffffffffffffffffffffffffffffffff82036117e3576117e2611777565b5b600182019050919050565b7f596f7520617265206e6f74206f776e6572206f6620706f6f6c00000000000000600082015250565b60006118246019836115d3565b915061182f826117ee565b602082019050919050565b6000602082019050818103600083015261185381611817565b9050919050565b50565b600061186a6000836115d3565b91506118758261185a565b600082019050919050565b600060208201905081810360008301526118998161185d565b9050919050565b7f4e6577206c6f636b206578706972792074696d65206d7573742062652067742060008201527f63757272656e74206c6f636b206578706972792074696d650000000000000000602082015250565b60006118fc6038836115d3565b9150611907826118a0565b604082019050919050565b6000602082019050818103600083015261192b816118ef565b9050919050565b7f596f752068617665206e6f206c6f636b656420746f6b656e7300000000000000600082015250565b60006119686019836115d3565b915061197382611932565b602082019050919050565b600060208201905081810360008301526119978161195b565b9050919050565b7f4c6f636b2074696d6520686173206e6f74206578706972656420796574000000600082015250565b60006119d4601d836115d3565b91506119df8261199e565b602082019050919050565b60006020820190508181036000830152611a03816119c7565b9050919050565b600081519050611a1981611383565b92915050565b600060208284031215611a3557611a34611316565b5b6000611a4384828501611a0a565b91505092915050565b600081519050611a5b8161134d565b92915050565b600060208284031215611a7757611a76611316565b5b6000611a8584828501611a4c565b91505092915050565b7f546f6b656e206973206e6f74204c5020746f6b656e0000000000000000000000600082015250565b6000611ac46015836115d3565b9150611acf82611a8e565b602082019050919050565b60006020820190508181036000830152611af381611ab7565b9050919050565b7f5452414e534645525f46524f4d5f4641494c4544000000000000000000000000600082015250565b6000611b306014836115d3565b9150611b3b82611afa565b602082019050919050565b60006020820190508181036000830152611b5f81611b23565b9050919050565b7f5452414e534645525f4641494c45440000000000000000000000000000000000600082015250565b6000611b9c600f836115d3565b9150611ba782611b66565b602082019050919050565b60006020820190508181036000830152611bcb81611b8f565b9050919050565b6000604082019050611be7600083018561150c565b611bf4602083018461150c565b939250505056fea2646970667358221220086efb6cf563e853248b2e0becfdbb241222f7a59a1dd5b0f394f6e453fd892164736f6c63430008180033",
  "linkReferences": {},
  "deployedLinkReferences": {}
}