{
  "_format": "hh-sol-artifact-1",
  "contractName": "APPool",
  "sourceName": "contracts/Pool/APPool.sol",
  "abi": [
    {
      "inputs": [
        {
          "internalType": "address",
          "name": "lock",
          "type": "address"
        }
      ],
      "stateMutability": "nonpayable",
      "type": "constructor"
    },
    {
      "inputs": [
        {
          "internalType": "address",
          "name": "user",
          "type": "address"
        }
      ],
      "name": "ClaimError",
      "type": "error"
    },
    {
      "inputs": [],
      "name": "ReentrancyGuardReentrantCall",
      "type": "error"
    },
    {
      "anonymous": false,
      "inputs": [
        {
          "indexed": false,
          "internalType": "uint256",
          "name": "addresses",
          "type": "uint256"
        },
        {
          "indexed": false,
          "internalType": "uint256",
          "name": "timestamp",
          "type": "uint256"
        }
      ],
      "name": "AddedWhitelist",
      "type": "event"
    },
    {
      "anonymous": false,
      "inputs": [
        {
          "indexed": false,
          "internalType": "uint256",
          "name": "timestam",
          "type": "uint256"
        }
      ],
      "name": "Cancelled",
      "type": "event"
    },
    {
      "anonymous": false,
      "inputs": [
        {
          "indexed": false,
          "internalType": "address",
          "name": "contributor",
          "type": "address"
        },
        {
          "indexed": false,
          "internalType": "uint256",
          "name": "amount",
          "type": "uint256"
        },
        {
          "indexed": false,
          "internalType": "uint256",
          "name": "timestamp",
          "type": "uint256"
        }
      ],
      "name": "Claimed",
      "type": "event"
    },
    {
      "anonymous": false,
      "inputs": [
        {
          "indexed": false,
          "internalType": "address",
          "name": "contributor",
          "type": "address"
        },
        {
          "indexed": false,
          "internalType": "uint256",
          "name": "amount",
          "type": "uint256"
        },
        {
          "indexed": false,
          "internalType": "uint256",
          "name": "timestamp",
          "type": "uint256"
        }
      ],
      "name": "Contribute",
      "type": "event"
    },
    {
      "anonymous": false,
      "inputs": [
        {
          "indexed": false,
          "internalType": "address",
          "name": "contributor",
          "type": "address"
        },
        {
          "indexed": false,
          "internalType": "uint256",
          "name": "amount",
          "type": "uint256"
        },
        {
          "indexed": false,
          "internalType": "uint256",
          "name": "timestamp",
          "type": "uint256"
        }
      ],
      "name": "EmergencyWithdrawal",
      "type": "event"
    },
    {
      "anonymous": false,
      "inputs": [
        {
          "indexed": false,
          "internalType": "uint256",
          "name": "timestamp",
          "type": "uint256"
        }
      ],
      "name": "Finalized",
      "type": "event"
    },
    {
      "anonymous": false,
      "inputs": [
        {
          "indexed": false,
          "internalType": "address",
          "name": "user",
          "type": "address"
        },
        {
          "indexed": false,
          "internalType": "uint256",
          "name": "amount",
          "type": "uint256"
        },
        {
          "indexed": false,
          "internalType": "uint256",
          "name": "timestamp",
          "type": "uint256"
        }
      ],
      "name": "Withdrawn",
      "type": "event"
    },
    {
      "stateMutability": "payable",
      "type": "fallback"
    },
    {
      "inputs": [],
      "name": "cancel",
      "outputs": [
        {
          "internalType": "bool",
          "name": "",
          "type": "bool"
        }
      ],
      "stateMutability": "nonpayable",
      "type": "function"
    },
    {
      "inputs": [
        {
          "internalType": "address",
          "name": "factory",
          "type": "address"
        }
      ],
      "name": "changeFactoryAddress",
      "outputs": [],
      "stateMutability": "nonpayable",
      "type": "function"
    },
    {
      "inputs": [],
      "name": "claim",
      "outputs": [],
      "stateMutability": "nonpayable",
      "type": "function"
    },
    {
      "inputs": [],
      "name": "contribute",
      "outputs": [
        {
          "internalType": "bool",
          "name": "",
          "type": "bool"
        }
      ],
      "stateMutability": "payable",
      "type": "function"
    },
    {
      "inputs": [],
      "name": "emergencyWithdrawal",
      "outputs": [],
      "stateMutability": "nonpayable",
      "type": "function"
    },
    {
      "inputs": [],
      "name": "finalize",
      "outputs": [
        {
          "internalType": "bool",
          "name": "",
          "type": "bool"
        }
      ],
      "stateMutability": "nonpayable",
      "type": "function"
    },
    {
      "inputs": [],
      "name": "getPoolData",
      "outputs": [
        {
          "components": [
            {
              "internalType": "address",
              "name": "currency",
              "type": "address"
            },
            {
              "internalType": "uint256",
              "name": "presaleRate",
              "type": "uint256"
            },
            {
              "internalType": "uint256",
              "name": "softcap",
              "type": "uint256"
            },
            {
              "internalType": "uint256",
              "name": "hardcap",
              "type": "uint256"
            },
            {
              "internalType": "uint256",
              "name": "minBuy",
              "type": "uint256"
            },
            {
              "internalType": "uint256",
              "name": "maxBuy",
              "type": "uint256"
            },
            {
              "internalType": "uint256",
              "name": "liquidityRate",
              "type": "uint256"
            },
            {
              "internalType": "uint256",
              "name": "listingRate",
              "type": "uint256"
            },
            {
              "internalType": "uint256",
              "name": "startTime",
              "type": "uint256"
            },
            {
              "internalType": "uint256",
              "name": "endTime",
              "type": "uint256"
            },
            {
              "internalType": "uint256",
              "name": "lockEndTime",
              "type": "uint256"
            },
            {
              "internalType": "bool",
              "name": "isVesting",
              "type": "bool"
            },
            {
              "internalType": "bool",
              "name": "isLock",
              "type": "bool"
            },
            {
              "internalType": "bool",
              "name": "refund",
              "type": "bool"
            },
            {
              "internalType": "bool",
              "name": "autoListing",
              "type": "bool"
            }
          ],
          "internalType": "struct Presale",
          "name": "",
          "type": "tuple"
        },
        {
          "components": [
            {
              "internalType": "uint256",
              "name": "tge",
              "type": "uint256"
            },
            {
              "internalType": "uint256",
              "name": "cliff",
              "type": "uint256"
            },
            {
              "internalType": "uint256",
              "name": "release",
              "type": "uint256"
            },
            {
              "internalType": "uint256",
              "name": "startTime",
              "type": "uint256"
            }
          ],
          "internalType": "struct Vesting",
          "name": "",
          "type": "tuple"
        }
      ],
      "stateMutability": "view",
      "type": "function"
    },
    {
      "inputs": [
        {
          "internalType": "address",
          "name": "owner",
          "type": "address"
        }
      ],
      "name": "initialize",
      "outputs": [
        {
          "internalType": "bool",
          "name": "",
          "type": "bool"
        }
      ],
      "stateMutability": "nonpayable",
      "type": "function"
    },
    {
      "inputs": [
        {
          "components": [
            {
              "internalType": "address",
              "name": "currency",
              "type": "address"
            },
            {
              "internalType": "uint256",
              "name": "presaleRate",
              "type": "uint256"
            },
            {
              "internalType": "uint256",
              "name": "softcap",
              "type": "uint256"
            },
            {
              "internalType": "uint256",
              "name": "hardcap",
              "type": "uint256"
            },
            {
              "internalType": "uint256",
              "name": "minBuy",
              "type": "uint256"
            },
            {
              "internalType": "uint256",
              "name": "maxBuy",
              "type": "uint256"
            },
            {
              "internalType": "uint256",
              "name": "liquidityRate",
              "type": "uint256"
            },
            {
              "internalType": "uint256",
              "name": "listingRate",
              "type": "uint256"
            },
            {
              "internalType": "uint256",
              "name": "startTime",
              "type": "uint256"
            },
            {
              "internalType": "uint256",
              "name": "endTime",
              "type": "uint256"
            },
            {
              "internalType": "uint256",
              "name": "lockEndTime",
              "type": "uint256"
            },
            {
              "internalType": "bool",
              "name": "isVesting",
              "type": "bool"
            },
            {
              "internalType": "bool",
              "name": "isLock",
              "type": "bool"
            },
            {
              "internalType": "bool",
              "name": "refund",
              "type": "bool"
            },
            {
              "internalType": "bool",
              "name": "autoListing",
              "type": "bool"
            }
          ],
          "internalType": "struct Presale",
          "name": "saleInfo",
          "type": "tuple"
        }
      ],
      "name": "setPresale",
      "outputs": [
        {
          "internalType": "uint256",
          "name": "",
          "type": "uint256"
        }
      ],
      "stateMutability": "nonpayable",
      "type": "function"
    },
    {
      "inputs": [
        {
          "components": [
            {
              "internalType": "uint256",
              "name": "tge",
              "type": "uint256"
            },
            {
              "internalType": "uint256",
              "name": "cliff",
              "type": "uint256"
            },
            {
              "internalType": "uint256",
              "name": "release",
              "type": "uint256"
            },
            {
              "internalType": "uint256",
              "name": "startTime",
              "type": "uint256"
            }
          ],
          "internalType": "struct Vesting",
          "name": "vesting",
          "type": "tuple"
        }
      ],
      "name": "setVesting",
      "outputs": [],
      "stateMutability": "nonpayable",
      "type": "function"
    },
    {
      "inputs": [
        {
          "internalType": "address[]",
          "name": "whitelistAddresses",
          "type": "address[]"
        }
      ],
      "name": "setWhitelist",
      "outputs": [],
      "stateMutability": "nonpayable",
      "type": "function"
    },
    {
      "inputs": [],
      "name": "withdraw",
      "outputs": [],
      "stateMutability": "nonpayable",
      "type": "function"
    },
    {
      "stateMutability": "payable",
      "type": "receive"
    }
  ],
  "bytecode": "0x60a06040523480156200001157600080fd5b5060405162004011380380620040118339818101604052810190620000379190620000e4565b60016000819055508073ffffffffffffffffffffffffffffffffffffffff1660808173ffffffffffffffffffffffffffffffffffffffff16815250505062000116565b600080fd5b600073ffffffffffffffffffffffffffffffffffffffff82169050919050565b6000620000ac826200007f565b9050919050565b620000be816200009f565b8114620000ca57600080fd5b50565b600081519050620000de81620000b3565b92915050565b600060208284031215620000fd57620000fc6200007a565b5b60006200010d84828501620000cd565b91505092915050565b608051613ed86200013960003960008181611cb70152611d050152613ed86000f3fe6080604052600436106100ab5760003560e01c806372ab7e401161006457806372ab7e401461019a578063c4d66de8146101c3578063d7bb99ba14610200578063ea8a1af01461021e578063f421764814610249578063fb29238b14610272576100ba565b80631f8b7a36146100c45780633ccfd60b146100ed578063420fdff5146101045780634bb278f3146101415780634e71d92d1461016c5780635b0a384314610183576100ba565b366100ba576100b861029e565b005b6100c261029e565b005b3480156100d057600080fd5b506100eb60048036038101906100e69190612995565b6106c1565b005b3480156100f957600080fd5b50610102610892565b005b34801561011057600080fd5b5061012b60048036038101906101269190612bbc565b6109f9565b6040516101389190612bf9565b60405180910390f35b34801561014d57600080fd5b50610156610c60565b6040516101639190612c23565b60405180910390f35b34801561017857600080fd5b50610181611020565b005b34801561018f57600080fd5b50610198611096565b005b3480156101a657600080fd5b506101c160048036038101906101bc9190612c3e565b61127c565b005b3480156101cf57600080fd5b506101ea60048036038101906101e59190612c3e565b6113bf565b6040516101f79190612c23565b60405180910390f35b61020861029e565b6040516102159190612c23565b60405180910390f35b34801561022a57600080fd5b506102336114b6565b6040516102409190612c23565b60405180910390f35b34801561025557600080fd5b50610270600480360381019061026b9190612cd0565b611690565b005b34801561027e57600080fd5b50610287611905565b604051610295929190612ed4565b60405180910390f35b600060018054906101000a900460ff161561034057601960003373ffffffffffffffffffffffffffffffffffffffff1673ffffffffffffffffffffffffffffffffffffffff16815260200190815260200160002060009054906101000a900460ff1661033f576040517f08c379a000000000000000000000000000000000000000000000000000000000815260040161033690612f5c565b60405180910390fd5b5b60006004604051806101e00160405290816000820160009054906101000a900473ffffffffffffffffffffffffffffffffffffffff1673ffffffffffffffffffffffffffffffffffffffff1673ffffffffffffffffffffffffffffffffffffffff168152602001600182015481526020016002820154815260200160038201548152602001600482015481526020016005820154815260200160068201548152602001600782015481526020016008820154815260200160098201548152602001600a8201548152602001600b820160009054906101000a900460ff16151515158152602001600b820160019054906101000a900460ff16151515158152602001600b820160029054906101000a900460ff16151515158152602001600b820160039054906101000a900460ff16151515158152505090506000601090508060030160019054906101000a900460ff161580156104ac57508060030160009054906101000a900460ff16155b80156104bd57508161010001514210155b80156104ce57508161012001514211155b61050d576040517f08c379a000000000000000000000000000000000000000000000000000000000815260040161050490612fee565b60405180910390fd5b8160600151348260000154610522919061303d565b111561052d57600080fd5b6000601860003373ffffffffffffffffffffffffffffffffffffffff1673ffffffffffffffffffffffffffffffffffffffff16815260200190815260200160002090508260a00151348260000154610585919061303d565b11158015610597575082608001513410155b6105a057600080fd5b348260000160008282546105b4919061303d565b9250508190555034601860003373ffffffffffffffffffffffffffffffffffffffff1673ffffffffffffffffffffffffffffffffffffffff168152602001908152602001600020600001600082825461060d919061303d565b925050819055508260200151346106249190613071565b601860003373ffffffffffffffffffffffffffffffffffffffff1673ffffffffffffffffffffffffffffffffffffffff1681526020019081526020016000206001016000828254610675919061303d565b925050819055507fc9ec9df36a160cd05ae36393dca23c0128234fc68a48baec833a6d8b5967d6da3334426040516106af939291906130c2565b60405180910390a16001935050505090565b600260009054906101000a900473ffffffffffffffffffffffffffffffffffffffff1673ffffffffffffffffffffffffffffffffffffffff163373ffffffffffffffffffffffffffffffffffffffff1614610751576040517f08c379a000000000000000000000000000000000000000000000000000000000815260040161074890613145565b60405180910390fd5b60008160000151118015610769575060648160000151105b6107a8576040517f08c379a000000000000000000000000000000000000000000000000000000000815260040161079f9061318b565b60405180910390fd5b6064816040015182600001516107be919061303d565b11156107ff576040517f08c379a00000000000000000000000000000000000000000000000000000000081526004016107f69061318b565b60405180910390fd5b60008160400151118015610817575060008160200151115b610856576040517f08c379a000000000000000000000000000000000000000000000000000000000815260040161084d9061318b565b60405180910390fd5b60008160600181815250508060146000820151816000015560208201518160010155604082015181600201556060820151816003015590505050565b61089a611ae6565b601060030160019054906101000a900460ff166108ec576040517f08c379a00000000000000000000000000000000000000000000000000000000081526004016108e3906131f7565b60405180910390fd5b6000601860003373ffffffffffffffffffffffffffffffffffffffff1673ffffffffffffffffffffffffffffffffffffffff168152602001908152602001600020600001549050601860003373ffffffffffffffffffffffffffffffffffffffff1673ffffffffffffffffffffffffffffffffffffffff1681526020019081526020016000206000808201600090556001820160009055600282016000905560038201600090556004820160006101000a81549060ff021916905550506109b33382611b2c565b7f92ccf450a286a957af52509bc1c9939d1a6a481783e142e41e2499f0bb66ebc63382426040516109e6939291906130c2565b60405180910390a1506109f7611b7f565b565b6000600260009054906101000a900473ffffffffffffffffffffffffffffffffffffffff1673ffffffffffffffffffffffffffffffffffffffff163373ffffffffffffffffffffffffffffffffffffffff1614610a8b576040517f08c379a0000000000000000000000000000000000000000000000000000000008152600401610a8290613145565b60405180910390fd5b8160000151600360006101000a81548173ffffffffffffffffffffffffffffffffffffffff021916908373ffffffffffffffffffffffffffffffffffffffff16021790555081600460008201518160000160006101000a81548173ffffffffffffffffffffffffffffffffffffffff021916908373ffffffffffffffffffffffffffffffffffffffff1602179055506020820151816001015560408201518160020155606082015181600301556080820151816004015560a0820151816005015560c0820151816006015560e082015181600701556101008201518160080155610120820151816009015561014082015181600a015561016082015181600b0160006101000a81548160ff02191690831515021790555061018082015181600b0160016101000a81548160ff0219169083151502179055506101a082015181600b0160026101000a81548160ff0219169083151502179055506101c082015181600b0160036101000a81548160ff021916908315150217905550905050600082602001518360600151610c1e9190613071565b9050826101c0015115610c4d578260e001518360600151610c3f9190613071565b81610c4a919061303d565b90505b8060106001018190555080915050919050565b6000600160029054906101000a900473ffffffffffffffffffffffffffffffffffffffff1673ffffffffffffffffffffffffffffffffffffffff163373ffffffffffffffffffffffffffffffffffffffff1614610cf2576040517f08c379a0000000000000000000000000000000000000000000000000000000008152600401610ce990613263565b60405180910390fd5b6000601090508060030160019054906101000a900460ff1615610d4a576040517f08c379a0000000000000000000000000000000000000000000000000000000008152600401610d41906132cf565b60405180910390fd5b60006004604051806101e00160405290816000820160009054906101000a900473ffffffffffffffffffffffffffffffffffffffff1673ffffffffffffffffffffffffffffffffffffffff1673ffffffffffffffffffffffffffffffffffffffff168152602001600182015481526020016002820154815260200160038201548152602001600482015481526020016005820154815260200160068201548152602001600782015481526020016008820154815260200160098201548152602001600a8201548152602001600b820160009054906101000a900460ff16151515158152602001600b820160019054906101000a900460ff16151515158152602001600b820160029054906101000a900460ff16151515158152602001600b820160039054906101000a900460ff161515151581525050905060006010600001549050808260400151108015610ea3575081610120015142115b80610eb15750808260600151145b610ef0576040517f08c379a0000000000000000000000000000000000000000000000000000000008152600401610ee79061333b565b60405180910390fd5b60018360030160006101000a81548160ff02191690831515021790555081610160015115610f335760146001015442610f29919061303d565b6014600301819055505b60008260e0015182610f459190613071565b9050826101c0015115610f9b5782610180015115610f8557610f6d8360000151308385611b89565b610f808360000151846101400151611c5f565b610f96565b610f958360000151338385611b89565b5b610fa6565b610fa53383611b2c565b5b6000818460e001518560600151610fbd9190613071565b610fc7919061335b565b9050610fdd818560000151866101a00151611db1565b7f839cf22e1ba87ce2f5b9bbf46cf0175a09eed52febdfaac8852478e68203c7634260405161100c9190612bf9565b60405180910390a160019550505050505090565b60006004600b0160009054906101000a900460ff1661104657611041611df5565b61104f565b61104e611fce565b5b90508061109357336040517ffb9f9b7100000000000000000000000000000000000000000000000000000000815260040161108a919061338f565b60405180910390fd5b50565b6000601090508060030160009054906101000a900460ff16156110ee576040517f08c379a00000000000000000000000000000000000000000000000000000000081526004016110e5906133f6565b60405180910390fd5b6000601860003373ffffffffffffffffffffffffffffffffffffffff1673ffffffffffffffffffffffffffffffffffffffff1681526020019081526020016000206040518060a0016040529081600082015481526020016001820154815260200160028201548152602001600382015481526020016004820160009054906101000a900460ff161515151581525050905060008160000151116111c6576040517f08c379a00000000000000000000000000000000000000000000000000000000081526004016111bd90613462565b60405180910390fd5b80600001518260000160008282546111de919061335b565b9250508190555060006064601483600001516111fa9190613071565b61120491906134b1565b90506000818360000151039050600083600001818152505060008360200181815250506112313383611b2c565b61123b3382611b2c565b7f56da9a5ae0bcf6e7c3fdd78a10550e7d0458de1c39bfb7f6e96a3e92dd344a6833834260405161126e939291906130c2565b60405180910390a150505050565b600260009054906101000a900473ffffffffffffffffffffffffffffffffffffffff1673ffffffffffffffffffffffffffffffffffffffff163373ffffffffffffffffffffffffffffffffffffffff161461130c576040517f08c379a000000000000000000000000000000000000000000000000000000000815260040161130390613145565b60405180910390fd5b600073ffffffffffffffffffffffffffffffffffffffff168173ffffffffffffffffffffffffffffffffffffffff160361137b576040517f08c379a000000000000000000000000000000000000000000000000000000000815260040161137290613554565b60405180910390fd5b80600260006101000a81548173ffffffffffffffffffffffffffffffffffffffff021916908373ffffffffffffffffffffffffffffffffffffffff16021790555050565b6000600160009054906101000a900460ff1615611411576040517f08c379a0000000000000000000000000000000000000000000000000000000008152600401611408906135c0565b60405180910390fd5b33600260006101000a81548173ffffffffffffffffffffffffffffffffffffffff021916908373ffffffffffffffffffffffffffffffffffffffff16021790555081600160026101000a81548173ffffffffffffffffffffffffffffffffffffffff021916908373ffffffffffffffffffffffffffffffffffffffff1602179055506001905060018060006101000a81548160ff021916908315150217905550919050565b6000600160029054906101000a900473ffffffffffffffffffffffffffffffffffffffff1673ffffffffffffffffffffffffffffffffffffffff163373ffffffffffffffffffffffffffffffffffffffff1614611548576040517f08c379a000000000000000000000000000000000000000000000000000000000815260040161153f90613263565b60405180910390fd5b6000601090508060030160009054906101000a900460ff1615801561157c57508060030160019054906101000a900460ff16155b6115bb576040517f08c379a00000000000000000000000000000000000000000000000000000000081526004016115b2906133f6565b60405180910390fd5b60018160030160016101000a81548160ff0219169083151502179055506000600360009054906101000a900473ffffffffffffffffffffffffffffffffffffffff169050611650600160029054906101000a900473ffffffffffffffffffffffffffffffffffffffff1683600101548373ffffffffffffffffffffffffffffffffffffffff166122329092919063ffffffff16565b7fc41d93b8bfbf9fd7cf5bfe271fd649ab6a6fec0ea101c23b82a2a28eca2533a94260405161167f9190612bf9565b60405180910390a160019250505090565b600160029054906101000a900473ffffffffffffffffffffffffffffffffffffffff1673ffffffffffffffffffffffffffffffffffffffff163373ffffffffffffffffffffffffffffffffffffffff1614611720576040517f08c379a000000000000000000000000000000000000000000000000000000000815260040161171790613263565b60405180910390fd5b60c8828290501115611767576040517f08c379a000000000000000000000000000000000000000000000000000000000815260040161175e90613652565b60405180910390fd5b60018054906101000a900460ff166117945760018060016101000a81548160ff0219169083151502179055505b60005b828290508110156118c457600073ffffffffffffffffffffffffffffffffffffffff168383838181106117cd576117cc613672565b5b90506020020160208101906117e29190612c3e565b73ffffffffffffffffffffffffffffffffffffffff1603611838576040517f08c379a000000000000000000000000000000000000000000000000000000000815260040161182f90613713565b60405180910390fd5b60016019600085858581811061185157611850613672565b5b90506020020160208101906118669190612c3e565b73ffffffffffffffffffffffffffffffffffffffff1673ffffffffffffffffffffffffffffffffffffffff16815260200190815260200160002060006101000a81548160ff0219169083151502179055508080600101915050611797565b507fc9d85086c86b011944a80017a579490844e43ac6296eafcfc512e88d1e71de3382829050426040516118f9929190613733565b60405180910390a15050565b61190d612786565b61191561281a565b600260009054906101000a900473ffffffffffffffffffffffffffffffffffffffff1673ffffffffffffffffffffffffffffffffffffffff163373ffffffffffffffffffffffffffffffffffffffff161461196f57600080fd5b6004601481604051806101e00160405290816000820160009054906101000a900473ffffffffffffffffffffffffffffffffffffffff1673ffffffffffffffffffffffffffffffffffffffff1673ffffffffffffffffffffffffffffffffffffffff168152602001600182015481526020016002820154815260200160038201548152602001600482015481526020016005820154815260200160068201548152602001600782015481526020016008820154815260200160098201548152602001600a8201548152602001600b820160009054906101000a900460ff16151515158152602001600b820160019054906101000a900460ff16151515158152602001600b820160029054906101000a900460ff16151515158152602001600b820160039054906101000a900460ff1615151515815250509150806040518060800160405290816000820154815260200160018201548152602001600282015481526020016003820154815250509050915091509091565b600260005403611b22576040517f3ee5aeb500000000000000000000000000000000000000000000000000000000815260040160405180910390fd5b6002600081905550565b600080600080600085875af1905080611b7a576040517f08c379a0000000000000000000000000000000000000000000000000000000008152600401611b71906137a8565b60405180910390fd5b505050565b6001600081905550565b6000737a250d5630b4cf539739df2c5dacb4c659f2488d9050611bcd81848773ffffffffffffffffffffffffffffffffffffffff166122e09092919063ffffffff16565b8073ffffffffffffffffffffffffffffffffffffffff1663f305d7198387866000808a426040518863ffffffff1660e01b8152600401611c129695949392919061380d565b60606040518083038185885af1158015611c30573d6000803e3d6000fd5b50505050506040513d601f19601f82011682018060405250810190611c559190613883565b5050505050505050565b600073c02aaa39b223fe8d0a0e5c4f27ead9083c756cc290506000611c84848361238e565b90506000611cb1308373ffffffffffffffffffffffffffffffffffffffff1661252990919063ffffffff16565b905060007f00000000000000000000000000000000000000000000000000000000000000009050611d0381838573ffffffffffffffffffffffffffffffffffffffff166122e09092919063ffffffff16565b7f000000000000000000000000000000000000000000000000000000000000000073ffffffffffffffffffffffffffffffffffffffff166316662b328433858960016040518663ffffffff1660e01b8152600401611d659594939291906138d6565b6020604051808303816000875af1158015611d84573d6000803e3d6000fd5b505050506040513d601f19601f82011682018060405250810190611da8919061393e565b50505050505050565b600081611dc05761dead611dc2565b335b9050611def81858573ffffffffffffffffffffffffffffffffffffffff166122329092919063ffffffff16565b50505050565b60008060106040518060a00160405290816000820154815260200160018201548152602001600282015481526020016003820160009054906101000a900460ff161515151581526020016003820160019054906101000a900460ff16151515158152505090508060600151611e9f576040517f08c379a0000000000000000000000000000000000000000000000000000000008152600401611e96906139b7565b60405180910390fd5b6000601860003373ffffffffffffffffffffffffffffffffffffffff1673ffffffffffffffffffffffffffffffffffffffff16815260200190815260200160002090506000816001015411611f29576040517f08c379a0000000000000000000000000000000000000000000000000000000008152600401611f2090613a23565b60405180910390fd5b60008160010154905060008260010181905550611f893382600360009054906101000a900473ffffffffffffffffffffffffffffffffffffffff1673ffffffffffffffffffffffffffffffffffffffff166122329092919063ffffffff16565b7f987d620f307ff6b94d58743cb7a7509f24071586a77759b77c2d4e29f75a2f9a338242604051611fbc939291906130c2565b60405180910390a16001935050505090565b60008060106040518060a00160405290816000820154815260200160018201548152602001600282015481526020016003820160009054906101000a900460ff161515151581526020016003820160019054906101000a900460ff16151515158152505090508060600151612078576040517f08c379a000000000000000000000000000000000000000000000000000000000815260040161206f906139b7565b60405180910390fd5b6000601860003373ffffffffffffffffffffffffffffffffffffffff1673ffffffffffffffffffffffffffffffffffffffff1681526020019081526020016000209050600081600101541180156120d6575080600201548160010154115b612115576040517f08c379a000000000000000000000000000000000000000000000000000000000815260040161210c90613a23565b60405180910390fd5b600060146040518060800160405290816000820154815260200160018201548152602001600282015481526020016003820154815250509050600061215a82846125ad565b90506000811161219f576040517f08c379a000000000000000000000000000000000000000000000000000000000815260040161219690613a8f565b60405180910390fd5b6121ec3382600360009054906101000a900473ffffffffffffffffffffffffffffffffffffffff1673ffffffffffffffffffffffffffffffffffffffff166122329092919063ffffffff16565b7f987d620f307ff6b94d58743cb7a7509f24071586a77759b77c2d4e29f75a2f9a33824260405161221f939291906130c2565b60405180910390a1600194505050505090565b60006040517fa9059cbb00000000000000000000000000000000000000000000000000000000815273ffffffffffffffffffffffffffffffffffffffff84166004820152826024820152602060006044836000895af13d15601f3d11600160005114161716915050806122da576040517f08c379a00000000000000000000000000000000000000000000000000000000081526004016122d190613afb565b60405180910390fd5b50505050565b60006040517f095ea7b300000000000000000000000000000000000000000000000000000000815273ffffffffffffffffffffffffffffffffffffffff84166004820152826024820152602060006044836000895af13d15601f3d1160016000511416171691505080612388576040517f08c379a000000000000000000000000000000000000000000000000000000000815260040161237f90613b67565b60405180910390fd5b50505050565b60008173ffffffffffffffffffffffffffffffffffffffff168373ffffffffffffffffffffffffffffffffffffffff16036123fe576040517f08c379a00000000000000000000000000000000000000000000000000000000081526004016123f590613bf9565b60405180910390fd5b6000735c69bee701ef814a2b6a3edd4b1652cb9cc5aa6f90506000808473ffffffffffffffffffffffffffffffffffffffff168673ffffffffffffffffffffffffffffffffffffffff1610612454578486612457565b85855b91509150600073ffffffffffffffffffffffffffffffffffffffff168273ffffffffffffffffffffffffffffffffffffffff16036124ca576040517f08c379a00000000000000000000000000000000000000000000000000000000081526004016124c190613c65565b60405180910390fd5b8282826040516020016124de929190613ccd565b60405160208183030381529060405280519060200120604051602001612505929190613dc7565b6040516020818303038152906040528051906020012060001c935050505092915050565b60008273ffffffffffffffffffffffffffffffffffffffff166370a08231836040518263ffffffff1660e01b8152600401612564919061338f565b602060405180830381865afa158015612581573d6000803e3d6000fd5b505050506040513d601f19601f820116820180604052508101906125a59190613e09565b905092915050565b60008160040160009054906101000a900460ff166126155760018260040160006101000a81548160ff02191690831515021790555060648360000151836001015402816125fd576125fc613482565b5b04810190508082600101600082825403925050819055505b82606001514210612780576000836060015142612632919061335b565b90506000600185602001518361264891906134b1565b612652919061303d565b9050836003015481101561269b576040517f08c379a000000000000000000000000000000000000000000000000000000000815260040161269290613e82565b60405180910390fd5b6000846003015482039050600081116126e9576040517f08c379a00000000000000000000000000000000000000000000000000000000081526004016126e09061318b565b60405180910390fd5b6000866040015187600001516064612701919061335b565b61270b91906134b1565b9050600081876001015461271f91906134b1565b90508387600301819055508281028601955086600201548760010154612745919061335b565b86116127515785612766565b86600201548760010154612765919061335b565b5b955085876002016000828254019250508190555050505050505b92915050565b604051806101e00160405280600073ffffffffffffffffffffffffffffffffffffffff168152602001600081526020016000815260200160008152602001600081526020016000815260200160008152602001600081526020016000815260200160008152602001600081526020016000151581526020016000151581526020016000151581526020016000151581525090565b6040518060800160405280600081526020016000815260200160008152602001600081525090565b6000604051905090565b600080fd5b600080fd5b600080fd5b6000601f19601f8301169050919050565b7f4e487b7100000000000000000000000000000000000000000000000000000000600052604160045260246000fd5b6128a48261285b565b810181811067ffffffffffffffff821117156128c3576128c261286c565b5b80604052505050565b60006128d6612842565b90506128e2828261289b565b919050565b6000819050919050565b6128fa816128e7565b811461290557600080fd5b50565b600081359050612917816128f1565b92915050565b60006080828403121561293357612932612856565b5b61293d60806128cc565b9050600061294d84828501612908565b600083015250602061296184828501612908565b602083015250604061297584828501612908565b604083015250606061298984828501612908565b60608301525092915050565b6000608082840312156129ab576129aa61284c565b5b60006129b98482850161291d565b91505092915050565b600073ffffffffffffffffffffffffffffffffffffffff82169050919050565b60006129ed826129c2565b9050919050565b6129fd816129e2565b8114612a0857600080fd5b50565b600081359050612a1a816129f4565b92915050565b60008115159050919050565b612a3581612a20565b8114612a4057600080fd5b50565b600081359050612a5281612a2c565b92915050565b60006101e08284031215612a6f57612a6e612856565b5b612a7a6101e06128cc565b90506000612a8a84828501612a0b565b6000830152506020612a9e84828501612908565b6020830152506040612ab284828501612908565b6040830152506060612ac684828501612908565b6060830152506080612ada84828501612908565b60808301525060a0612aee84828501612908565b60a08301525060c0612b0284828501612908565b60c08301525060e0612b1684828501612908565b60e083015250610100612b2b84828501612908565b61010083015250610120612b4184828501612908565b61012083015250610140612b5784828501612908565b61014083015250610160612b6d84828501612a43565b61016083015250610180612b8384828501612a43565b610180830152506101a0612b9984828501612a43565b6101a0830152506101c0612baf84828501612a43565b6101c08301525092915050565b60006101e08284031215612bd357612bd261284c565b5b6000612be184828501612a58565b91505092915050565b612bf3816128e7565b82525050565b6000602082019050612c0e6000830184612bea565b92915050565b612c1d81612a20565b82525050565b6000602082019050612c386000830184612c14565b92915050565b600060208284031215612c5457612c5361284c565b5b6000612c6284828501612a0b565b91505092915050565b600080fd5b600080fd5b600080fd5b60008083601f840112612c9057612c8f612c6b565b5b8235905067ffffffffffffffff811115612cad57612cac612c70565b5b602083019150836020820283011115612cc957612cc8612c75565b5b9250929050565b60008060208385031215612ce757612ce661284c565b5b600083013567ffffffffffffffff811115612d0557612d04612851565b5b612d1185828601612c7a565b92509250509250929050565b612d26816129e2565b82525050565b612d35816128e7565b82525050565b612d4481612a20565b82525050565b6101e082016000820151612d616000850182612d1d565b506020820151612d746020850182612d2c565b506040820151612d876040850182612d2c565b506060820151612d9a6060850182612d2c565b506080820151612dad6080850182612d2c565b5060a0820151612dc060a0850182612d2c565b5060c0820151612dd360c0850182612d2c565b5060e0820151612de660e0850182612d2c565b50610100820151612dfb610100850182612d2c565b50610120820151612e10610120850182612d2c565b50610140820151612e25610140850182612d2c565b50610160820151612e3a610160850182612d3b565b50610180820151612e4f610180850182612d3b565b506101a0820151612e646101a0850182612d3b565b506101c0820151612e796101c0850182612d3b565b50505050565b608082016000820151612e956000850182612d2c565b506020820151612ea86020850182612d2c565b506040820151612ebb6040850182612d2c565b506060820151612ece6060850182612d2c565b50505050565b600061026082019050612eea6000830185612d4a565b612ef86101e0830184612e7f565b9392505050565b600082825260208201905092915050565b7f596f7520617265206e6f742077686974656c69737465642e0000000000000000600082015250565b6000612f46601883612eff565b9150612f5182612f10565b602082019050919050565b60006020820190508181036000830152612f7581612f39565b9050919050565b7f5468652070726573616c65206973206e6f74206163746976652061742074686960008201527f732074696d652e00000000000000000000000000000000000000000000000000602082015250565b6000612fd8602783612eff565b9150612fe382612f7c565b604082019050919050565b6000602082019050818103600083015261300781612fcb565b9050919050565b7f4e487b7100000000000000000000000000000000000000000000000000000000600052601160045260246000fd5b6000613048826128e7565b9150613053836128e7565b925082820190508082111561306b5761306a61300e565b5b92915050565b600061307c826128e7565b9150613087836128e7565b9250828202613095816128e7565b915082820484148315176130ac576130ab61300e565b5b5092915050565b6130bc816129e2565b82525050565b60006060820190506130d760008301866130b3565b6130e46020830185612bea565b6130f16040830184612bea565b949350505050565b7f596f7520617265206e6f7420666163746f727900000000000000000000000000600082015250565b600061312f601383612eff565b915061313a826130f9565b602082019050919050565b6000602082019050818103600083015261315e81613122565b9050919050565b50565b6000613175600083612eff565b915061318082613165565b600082019050919050565b600060208201905081810360008301526131a481613168565b9050919050565b7f50726573616c6520636f6e74696e756573000000000000000000000000000000600082015250565b60006131e1601183612eff565b91506131ec826131ab565b602082019050919050565b60006020820190508181036000830152613210816131d4565b9050919050565b7f596f7520617265206e6f74206f776e6572000000000000000000000000000000600082015250565b600061324d601183612eff565b915061325882613217565b602082019050919050565b6000602082019050818103600083015261327c81613240565b9050919050565b7f50726573616c652069732063616e63656c6c65642e0000000000000000000000600082015250565b60006132b9601583612eff565b91506132c482613283565b602082019050919050565b600060208201905081810360008301526132e8816132ac565b9050919050565b7f50726573616c65206973206e6f74206f76657220796574000000000000000000600082015250565b6000613325601783612eff565b9150613330826132ef565b602082019050919050565b6000602082019050818103600083015261335481613318565b9050919050565b6000613366826128e7565b9150613371836128e7565b92508282039050818111156133895761338861300e565b5b92915050565b60006020820190506133a460008301846130b3565b92915050565b7f50726573616c652069732066696e616c697a6564000000000000000000000000600082015250565b60006133e0601483612eff565b91506133eb826133aa565b602082019050919050565b6000602082019050818103600083015261340f816133d3565b9050919050565b7f596f7520617265206e6f7420636f6e7472696275746f72000000000000000000600082015250565b600061344c601783612eff565b915061345782613416565b602082019050919050565b6000602082019050818103600083015261347b8161343f565b9050919050565b7f4e487b7100000000000000000000000000000000000000000000000000000000600052601260045260246000fd5b60006134bc826128e7565b91506134c7836128e7565b9250826134d7576134d6613482565b5b828204905092915050565b7f466163746f7279206164647265737320646f6573206e6f7420657175616c207a60008201527f65726f2061646472657373000000000000000000000000000000000000000000602082015250565b600061353e602b83612eff565b9150613549826134e2565b604082019050919050565b6000602082019050818103600083015261356d81613531565b9050919050565b7f416c726561647920696e697469616c697a656400000000000000000000000000600082015250565b60006135aa601383612eff565b91506135b582613574565b602082019050919050565b600060208201905081810360008301526135d98161359d565b9050919050565b7f4d6178696d756d20323030206164647265737365732063616e2062652061646460008201527f6564000000000000000000000000000000000000000000000000000000000000602082015250565b600061363c602283612eff565b9150613647826135e0565b604082019050919050565b6000602082019050818103600083015261366b8161362f565b9050919050565b7f4e487b7100000000000000000000000000000000000000000000000000000000600052603260045260246000fd5b7f41646472657373206d757374206e6f7420626520657175616c20746f207a657260008201527f6f20616464726573730000000000000000000000000000000000000000000000602082015250565b60006136fd602983612eff565b9150613708826136a1565b604082019050919050565b6000602082019050818103600083015261372c816136f0565b9050919050565b60006040820190506137486000830185612bea565b6137556020830184612bea565b9392505050565b7f4554485f5452414e534645525f4641494c454400000000000000000000000000600082015250565b6000613792601383612eff565b915061379d8261375c565b602082019050919050565b600060208201905081810360008301526137c181613785565b9050919050565b6000819050919050565b6000819050919050565b60006137f76137f26137ed846137c8565b6137d2565b6128e7565b9050919050565b613807816137dc565b82525050565b600060c08201905061382260008301896130b3565b61382f6020830188612bea565b61383c60408301876137fe565b61384960608301866137fe565b61385660808301856130b3565b61386360a0830184612bea565b979650505050505050565b60008151905061387d816128f1565b92915050565b60008060006060848603121561389c5761389b61284c565b5b60006138aa8682870161386e565b93505060206138bb8682870161386e565b92505060406138cc8682870161386e565b9150509250925092565b600060a0820190506138eb60008301886130b3565b6138f860208301876130b3565b6139056040830186612bea565b6139126060830185612bea565b61391f6080830184612c14565b9695505050505050565b60008151905061393881612a2c565b92915050565b6000602082840312156139545761395361284c565b5b600061396284828501613929565b91505092915050565b7f50726573616c65206e6f742066696e616c697a65642079657400000000000000600082015250565b60006139a1601983612eff565b91506139ac8261396b565b602082019050919050565b600060208201905081810360008301526139d081613994565b9050919050565b7f416d6f756e74206d7573742062652067726561746572207468616e2030000000600082015250565b6000613a0d601d83612eff565b9150613a18826139d7565b602082019050919050565b60006020820190508181036000830152613a3c81613a00565b9050919050565b7f4e6f20636c61696d61626c6520616d6f756e7420617661696c61626c65000000600082015250565b6000613a79601d83612eff565b9150613a8482613a43565b602082019050919050565b60006020820190508181036000830152613aa881613a6c565b9050919050565b7f5452414e534645525f4641494c45440000000000000000000000000000000000600082015250565b6000613ae5600f83612eff565b9150613af082613aaf565b602082019050919050565b60006020820190508181036000830152613b1481613ad8565b9050919050565b7f415050524f56455f4641494c4544000000000000000000000000000000000000600082015250565b6000613b51600e83612eff565b9150613b5c82613b1b565b602082019050919050565b60006020820190508181036000830152613b8081613b44565b9050919050565b7f556e697377617056324c6962726172793a204944454e544943414c5f4144445260008201527f4553534553000000000000000000000000000000000000000000000000000000602082015250565b6000613be3602583612eff565b9150613bee82613b87565b604082019050919050565b60006020820190508181036000830152613c1281613bd6565b9050919050565b7f556e697377617056324c6962726172793a205a45524f5f414444524553530000600082015250565b6000613c4f601e83612eff565b9150613c5a82613c19565b602082019050919050565b60006020820190508181036000830152613c7e81613c42565b9050919050565b60008160601b9050919050565b6000613c9d82613c85565b9050919050565b6000613caf82613c92565b9050919050565b613cc7613cc2826129e2565b613ca4565b82525050565b6000613cd98285613cb6565b601482019150613ce98284613cb6565b6014820191508190509392505050565b600081905092915050565b7fff00000000000000000000000000000000000000000000000000000000000000600082015250565b6000613d3a600183613cf9565b9150613d4582613d04565b600182019050919050565b6000819050919050565b6000819050919050565b613d75613d7082613d50565b613d5a565b82525050565b7f96e8ac4277198ff8b6f785478aa9a39f403cb768dd02cbee326c3e7da348845f600082015250565b6000613db1602083613cf9565b9150613dbc82613d7b565b602082019050919050565b6000613dd282613d2d565b9150613dde8285613cb6565b601482019150613dee8284613d64565b602082019150613dfd82613da4565b91508190509392505050565b600060208284031215613e1f57613e1e61284c565b5b6000613e2d8482850161386e565b91505092915050565b7f4e6f206e65772070686173657300000000000000000000000000000000000000600082015250565b6000613e6c600d83612eff565b9150613e7782613e36565b602082019050919050565b60006020820190508181036000830152613e9b81613e5f565b905091905056fea26469706673582212207bbb7fb7e1da0609cf838418493809e5a5e894e79595610bf2cc64e2dc028ad664736f6c63430008180033",
  "linkReferences": {},
  "deployedLinkReferences": {}
}