{
  "_format": "hh-sol-artifact-1",
  "contractName": "APPoolManager",
  "sourceName": "contracts/Pool/APPoolManager.sol",
  "abi": [
    {
      "inputs": [
        {
          "internalType": "address",
          "name": "_initialOwner",
          "type": "address"
        },
        {
          "internalType": "address",
          "name": "_signer",
          "type": "address"
        },
        {
          "internalType": "address",
          "name": "poolAddress",
          "type": "address"
        }
      ],
      "stateMutability": "nonpayable",
      "type": "constructor"
    },
    {
      "inputs": [],
      "name": "ERC1167FailedCreateClone",
      "type": "error"
    },
    {
      "inputs": [
        {
          "internalType": "address",
          "name": "owner",
          "type": "address"
        }
      ],
      "name": "OwnableInvalidOwner",
      "type": "error"
    },
    {
      "inputs": [
        {
          "internalType": "address",
          "name": "account",
          "type": "address"
        }
      ],
      "name": "OwnableUnauthorizedAccount",
      "type": "error"
    },
    {
      "inputs": [],
      "name": "ReentrancyGuardReentrantCall",
      "type": "error"
    },
    {
      "anonymous": false,
      "inputs": [
        {
          "indexed": true,
          "internalType": "address",
          "name": "previousOwner",
          "type": "address"
        },
        {
          "indexed": true,
          "internalType": "address",
          "name": "newOwner",
          "type": "address"
        }
      ],
      "name": "OwnershipTransferStarted",
      "type": "event"
    },
    {
      "anonymous": false,
      "inputs": [
        {
          "indexed": true,
          "internalType": "address",
          "name": "previousOwner",
          "type": "address"
        },
        {
          "indexed": true,
          "internalType": "address",
          "name": "newOwner",
          "type": "address"
        }
      ],
      "name": "OwnershipTransferred",
      "type": "event"
    },
    {
      "anonymous": false,
      "inputs": [
        {
          "indexed": false,
          "internalType": "address",
          "name": "presaleAddress",
          "type": "address"
        },
        {
          "indexed": false,
          "internalType": "address",
          "name": "currency",
          "type": "address"
        },
        {
          "indexed": false,
          "internalType": "uint256",
          "name": "amount",
          "type": "uint256"
        },
        {
          "indexed": false,
          "internalType": "uint256",
          "name": "startTime",
          "type": "uint256"
        },
        {
          "indexed": false,
          "internalType": "uint256",
          "name": "endTime",
          "type": "uint256"
        }
      ],
      "name": "PresaleCreated",
      "type": "event"
    },
    {
      "inputs": [],
      "name": "acceptOwnership",
      "outputs": [],
      "stateMutability": "nonpayable",
      "type": "function"
    },
    {
      "inputs": [
        {
          "internalType": "address",
          "name": "newSigner",
          "type": "address"
        }
      ],
      "name": "changeSigner",
      "outputs": [
        {
          "internalType": "bool",
          "name": "",
          "type": "bool"
        }
      ],
      "stateMutability": "nonpayable",
      "type": "function"
    },
    {
      "inputs": [
        {
          "components": [
            {
              "internalType": "address",
              "name": "currency",
              "type": "address"
            },
            {
              "internalType": "uint256",
              "name": "presaleRate",
              "type": "uint256"
            },
            {
              "internalType": "uint256",
              "name": "softcap",
              "type": "uint256"
            },
            {
              "internalType": "uint256",
              "name": "hardcap",
              "type": "uint256"
            },
            {
              "internalType": "uint256",
              "name": "minBuy",
              "type": "uint256"
            },
            {
              "internalType": "uint256",
              "name": "maxBuy",
              "type": "uint256"
            },
            {
              "internalType": "uint256",
              "name": "liquidityRate",
              "type": "uint256"
            },
            {
              "internalType": "uint256",
              "name": "listingRate",
              "type": "uint256"
            },
            {
              "internalType": "uint256",
              "name": "startTime",
              "type": "uint256"
            },
            {
              "internalType": "uint256",
              "name": "endTime",
              "type": "uint256"
            },
            {
              "internalType": "uint256",
              "name": "lockEndTime",
              "type": "uint256"
            },
            {
              "internalType": "bool",
              "name": "isVesting",
              "type": "bool"
            },
            {
              "internalType": "bool",
              "name": "isLock",
              "type": "bool"
            },
            {
              "internalType": "bool",
              "name": "refund",
              "type": "bool"
            },
            {
              "internalType": "bool",
              "name": "autoListing",
              "type": "bool"
            }
          ],
          "internalType": "struct Presale",
          "name": "newPresale",
          "type": "tuple"
        },
        {
          "components": [
            {
              "internalType": "uint256",
              "name": "tge",
              "type": "uint256"
            },
            {
              "internalType": "uint256",
              "name": "cliff",
              "type": "uint256"
            },
            {
              "internalType": "uint256",
              "name": "release",
              "type": "uint256"
            },
            {
              "internalType": "uint256",
              "name": "startTime",
              "type": "uint256"
            }
          ],
          "internalType": "struct Vesting",
          "name": "vesting",
          "type": "tuple"
        },
        {
          "internalType": "bytes",
          "name": "signature",
          "type": "bytes"
        }
      ],
      "name": "createPresale",
      "outputs": [
        {
          "internalType": "address",
          "name": "",
          "type": "address"
        }
      ],
      "stateMutability": "nonpayable",
      "type": "function"
    },
    {
      "inputs": [],
      "name": "getAllPresales",
      "outputs": [
        {
          "internalType": "address[]",
          "name": "poolAddress",
          "type": "address[]"
        }
      ],
      "stateMutability": "view",
      "type": "function"
    },
    {
      "inputs": [
        {
          "internalType": "address",
          "name": "poolOwner",
          "type": "address"
        },
        {
          "internalType": "address",
          "name": "currency",
          "type": "address"
        }
      ],
      "name": "getPoolAddress",
      "outputs": [
        {
          "internalType": "address",
          "name": "poolAddress",
          "type": "address"
        }
      ],
      "stateMutability": "view",
      "type": "function"
    },
    {
      "inputs": [
        {
          "internalType": "contract IPool",
          "name": "poolAddress",
          "type": "address"
        }
      ],
      "name": "getPresalesData",
      "outputs": [
        {
          "components": [
            {
              "internalType": "address",
              "name": "currency",
              "type": "address"
            },
            {
              "internalType": "uint256",
              "name": "presaleRate",
              "type": "uint256"
            },
            {
              "internalType": "uint256",
              "name": "softcap",
              "type": "uint256"
            },
            {
              "internalType": "uint256",
              "name": "hardcap",
              "type": "uint256"
            },
            {
              "internalType": "uint256",
              "name": "minBuy",
              "type": "uint256"
            },
            {
              "internalType": "uint256",
              "name": "maxBuy",
              "type": "uint256"
            },
            {
              "internalType": "uint256",
              "name": "liquidityRate",
              "type": "uint256"
            },
            {
              "internalType": "uint256",
              "name": "listingRate",
              "type": "uint256"
            },
            {
              "internalType": "uint256",
              "name": "startTime",
              "type": "uint256"
            },
            {
              "internalType": "uint256",
              "name": "endTime",
              "type": "uint256"
            },
            {
              "internalType": "uint256",
              "name": "lockEndTime",
              "type": "uint256"
            },
            {
              "internalType": "bool",
              "name": "isVesting",
              "type": "bool"
            },
            {
              "internalType": "bool",
              "name": "isLock",
              "type": "bool"
            },
            {
              "internalType": "bool",
              "name": "refund",
              "type": "bool"
            },
            {
              "internalType": "bool",
              "name": "autoListing",
              "type": "bool"
            }
          ],
          "internalType": "struct Presale",
          "name": "presaleDatas",
          "type": "tuple"
        },
        {
          "components": [
            {
              "internalType": "uint256",
              "name": "tge",
              "type": "uint256"
            },
            {
              "internalType": "uint256",
              "name": "cliff",
              "type": "uint256"
            },
            {
              "internalType": "uint256",
              "name": "release",
              "type": "uint256"
            },
            {
              "internalType": "uint256",
              "name": "startTime",
              "type": "uint256"
            }
          ],
          "internalType": "struct Vesting",
          "name": "vestingDatas",
          "type": "tuple"
        }
      ],
      "stateMutability": "view",
      "type": "function"
    },
    {
      "inputs": [],
      "name": "owner",
      "outputs": [
        {
          "internalType": "address",
          "name": "",
          "type": "address"
        }
      ],
      "stateMutability": "view",
      "type": "function"
    },
    {
      "inputs": [],
      "name": "pendingOwner",
      "outputs": [
        {
          "internalType": "address",
          "name": "",
          "type": "address"
        }
      ],
      "stateMutability": "view",
      "type": "function"
    },
    {
      "inputs": [
        {
          "internalType": "uint256",
          "name": "index",
          "type": "uint256"
        }
      ],
      "name": "presales",
      "outputs": [
        {
          "internalType": "address",
          "name": "poolAddress",
          "type": "address"
        }
      ],
      "stateMutability": "view",
      "type": "function"
    },
    {
      "inputs": [
        {
          "components": [
            {
              "internalType": "address",
              "name": "currency",
              "type": "address"
            },
            {
              "internalType": "uint256",
              "name": "presaleRate",
              "type": "uint256"
            },
            {
              "internalType": "uint256",
              "name": "softcap",
              "type": "uint256"
            },
            {
              "internalType": "uint256",
              "name": "hardcap",
              "type": "uint256"
            },
            {
              "internalType": "uint256",
              "name": "minBuy",
              "type": "uint256"
            },
            {
              "internalType": "uint256",
              "name": "maxBuy",
              "type": "uint256"
            },
            {
              "internalType": "uint256",
              "name": "liquidityRate",
              "type": "uint256"
            },
            {
              "internalType": "uint256",
              "name": "listingRate",
              "type": "uint256"
            },
            {
              "internalType": "uint256",
              "name": "startTime",
              "type": "uint256"
            },
            {
              "internalType": "uint256",
              "name": "endTime",
              "type": "uint256"
            },
            {
              "internalType": "uint256",
              "name": "lockEndTime",
              "type": "uint256"
            },
            {
              "internalType": "bool",
              "name": "isVesting",
              "type": "bool"
            },
            {
              "internalType": "bool",
              "name": "isLock",
              "type": "bool"
            },
            {
              "internalType": "bool",
              "name": "refund",
              "type": "bool"
            },
            {
              "internalType": "bool",
              "name": "autoListing",
              "type": "bool"
            }
          ],
          "internalType": "struct Presale",
          "name": "presale",
          "type": "tuple"
        },
        {
          "internalType": "bytes",
          "name": "signature",
          "type": "bytes"
        }
      ],
      "name": "recover",
      "outputs": [
        {
          "internalType": "bool",
          "name": "",
          "type": "bool"
        }
      ],
      "stateMutability": "view",
      "type": "function"
    },
    {
      "inputs": [],
      "name": "renounceOwnership",
      "outputs": [],
      "stateMutability": "nonpayable",
      "type": "function"
    },
    {
      "inputs": [
        {
          "internalType": "bytes",
          "name": "signature",
          "type": "bytes"
        }
      ],
      "name": "split",
      "outputs": [
        {
          "internalType": "uint8",
          "name": "",
          "type": "uint8"
        },
        {
          "internalType": "bytes32",
          "name": "",
          "type": "bytes32"
        },
        {
          "internalType": "bytes32",
          "name": "",
          "type": "bytes32"
        }
      ],
      "stateMutability": "pure",
      "type": "function"
    },
    {
      "inputs": [
        {
          "internalType": "address",
          "name": "newOwner",
          "type": "address"
        }
      ],
      "name": "transferOwnership",
      "outputs": [],
      "stateMutability": "nonpayable",
      "type": "function"
    },
    {
      "inputs": [],
      "name": "withdrawAll",
      "outputs": [],
      "stateMutability": "nonpayable",
      "type": "function"
    }
  ],
  "bytecode": "0x60a06040523480156200001157600080fd5b50604051620029c6380380620029c68339818101604052810190620000379190620003c5565b8183600073ffffffffffffffffffffffffffffffffffffffff168173ffffffffffffffffffffffffffffffffffffffff1603620000ae5760006040517f1e4fbdf7000000000000000000000000000000000000000000000000000000008152600401620000a5919062000432565b60405180910390fd5b620000bf816200025e60201b60201c565b50600073ffffffffffffffffffffffffffffffffffffffff168173ffffffffffffffffffffffffffffffffffffffff1603620000fa57600080fd5b80600260006101000a81548173ffffffffffffffffffffffffffffffffffffffff021916908373ffffffffffffffffffffffffffffffffffffffff1602179055507f8b73c3c69bb8fe3d512ecc4cf759cc79239f7b179b0ffacaa9a75d522b39400f6040518060400160405280600d81526020017f4549503731322d44657269766500000000000000000000000000000000000000815250805190602001206040518060400160405280600181526020017f3100000000000000000000000000000000000000000000000000000000000000815250805190602001204630604051602001620001ee95949392919062000485565b604051602081830303815290604052805190602001206080818152505050600160038190555080600460006101000a81548173ffffffffffffffffffffffffffffffffffffffff021916908373ffffffffffffffffffffffffffffffffffffffff160217905550505050620004e2565b600160006101000a81549073ffffffffffffffffffffffffffffffffffffffff021916905562000294816200029760201b60201c565b50565b60008060009054906101000a900473ffffffffffffffffffffffffffffffffffffffff169050816000806101000a81548173ffffffffffffffffffffffffffffffffffffffff021916908373ffffffffffffffffffffffffffffffffffffffff1602179055508173ffffffffffffffffffffffffffffffffffffffff168173ffffffffffffffffffffffffffffffffffffffff167f8be0079c531659141344cd1fd0a4f28419497f9722a3daafe3b4186f6b6457e060405160405180910390a35050565b600080fd5b600073ffffffffffffffffffffffffffffffffffffffff82169050919050565b60006200038d8262000360565b9050919050565b6200039f8162000380565b8114620003ab57600080fd5b50565b600081519050620003bf8162000394565b92915050565b600080600060608486031215620003e157620003e06200035b565b5b6000620003f186828701620003ae565b93505060206200040486828701620003ae565b92505060406200041786828701620003ae565b9150509250925092565b6200042c8162000380565b82525050565b600060208201905062000449600083018462000421565b92915050565b6000819050919050565b62000464816200044f565b82525050565b6000819050919050565b6200047f816200046a565b82525050565b600060a0820190506200049c600083018862000459565b620004ab602083018762000459565b620004ba604083018662000459565b620004c9606083018562000474565b620004d8608083018462000421565b9695505050505050565b6080516124c8620004fe600039600061081301526124c86000f3fe608060405234801561001057600080fd5b50600436106100ea5760003560e01c80637dbfb36d1161008c578063aad2b72311610066578063aad2b7231461024e578063e30c39781461027e578063ea9160dd1461029c578063f2fde38b146102ba576100ea565b80637dbfb36d146101f6578063853828b6146102265780638da5cb5b14610230576100ea565b806365d894e9116100c857806365d894e9146101805780637065c02b146101b2578063715018a6146101e257806379ba5097146101ec576100ea565b80632f50fcd2146100ef5780633fa1e0c8146101205780634840ab7b14610150575b600080fd5b61010960048036038101906101049190611285565b6102d6565b60405161011792919061147f565b60405180910390f35b61013a600480360381019061013591906114d6565b610367565b6040516101479190611525565b60405180910390f35b61016a600480360381019061016591906118bf565b6103ca565b6040516101779190611525565b60405180910390f35b61019a60048036038101906101959190611931565b610790565b6040516101a9939291906119af565b60405180910390f35b6101cc60048036038101906101c791906119e6565b61080e565b6040516101d99190611a53565b60405180910390f35b6101ea610972565b005b6101f4610986565b005b610210600480360381019061020b9190611a6e565b610a15565b60405161021d9190611525565b60405180910390f35b61022e610a5a565b005b610238610abe565b6040516102459190611525565b60405180910390f35b61026860048036038101906102639190611a9b565b610ae7565b6040516102759190611a53565b60405180910390f35b610286610baa565b6040516102939190611525565b60405180910390f35b6102a4610bd4565b6040516102b19190611b77565b60405180910390f35b6102d460048036038101906102cf9190611a9b565b610c7d565b005b6102de611145565b6102e66111d9565b6102ee610d2a565b8273ffffffffffffffffffffffffffffffffffffffff1663fb29238b6040518163ffffffff1660e01b815260040161026060405180830381865afa15801561033a573d6000803e3d6000fd5b505050506040513d601f19601f8201168201806040525081019061035e9190611db4565b91509150915091565b600080838360405160200161037d929190611e3e565b6040516020818303038152906040528051906020012090506103c1600460009054906101000a900473ffffffffffffffffffffffffffffffffffffffff1682610db1565b91505092915050565b60006103d4610dc6565b4284610100015110156103e657600080fd5b6103f0848361080e565b61042f576040517f08c379a000000000000000000000000000000000000000000000000000000000815260040161042690611ec7565b60405180910390fd5b6000338560000151604051602001610448929190611e3e565b604051602081830303815290604052805190602001209050600061048e600460009054906101000a900473ffffffffffffffffffffffffffffffffffffffff1683610e0c565b90508060066000600554815260200190815260200160002060006101000a81548173ffffffffffffffffffffffffffffffffffffffff021916908373ffffffffffffffffffffffffffffffffffffffff160217905550600081905060008173ffffffffffffffffffffffffffffffffffffffff1663c4d66de8336040518263ffffffff1660e01b81526004016105249190611525565b6020604051808303816000875af1158015610543573d6000803e3d6000fd5b505050506040513d601f19601f820116820180604052508101906105679190611ee7565b9050806105a9576040517f08c379a00000000000000000000000000000000000000000000000000000000081526004016105a090611f60565b60405180910390fd5b600560008154809291906105bc90611faf565b919050555060008273ffffffffffffffffffffffffffffffffffffffff1663420fdff58a6040518263ffffffff1660e01b81526004016105fc9190611ff7565b6020604051808303816000875af115801561061b573d6000803e3d6000fd5b505050506040513d601f19601f8201168201806040525081019061063f9190612013565b905060008111610684576040517f08c379a000000000000000000000000000000000000000000000000000000000815260040161067b9061208c565b60405180910390fd5b886101600151156106fb578273ffffffffffffffffffffffffffffffffffffffff16631f8b7a36896040518263ffffffff1660e01b81526004016106c891906120ac565b600060405180830381600087803b1580156106e257600080fd5b505af11580156106f6573d6000803e3d6000fd5b505050505b61072c3385838c6000015173ffffffffffffffffffffffffffffffffffffffff16610ebf909392919063ffffffff16565b7f6cc87a9e7d48481cdc79057e84215b4caef455f86fbc6c3be07ca69ea58b92f1848a60000151838c61010001518d61012001516040516107719594939291906120d6565b60405180910390a18395505050505050610789610f8a565b9392505050565b600080600060418451036107cc5760008060006020870151925060408701519150606087015160001a9050808383955095509550505050610807565b6040517f08c379a00000000000000000000000000000000000000000000000000000000081526004016107fe90612175565b60405180910390fd5b9193909250565b6000807f00000000000000000000000000000000000000000000000000000000000000007fe3aca7fab33e0dccb49669fa7f9baddb2a5592f009b2eab552bacb4dc72594e660001b85604051602001610868929190612195565b6040516020818303038152906040528051906020012060405160200161088f929190612237565b60405160208183030381529060405280519060200120905060008060006108b586610790565b9250925092506000600185858585604051600081526020016040526040516108e0949392919061226e565b6020604051602081039080840390855afa158015610902573d6000803e3d6000fd5b5050506020604051035190506000600260009054906101000a900473ffffffffffffffffffffffffffffffffffffffff1673ffffffffffffffffffffffffffffffffffffffff168273ffffffffffffffffffffffffffffffffffffffff1614905080965050505050505092915050565b61097a610d2a565b6109846000610f94565b565b6000610990610fc5565b90508073ffffffffffffffffffffffffffffffffffffffff166109b1610baa565b73ffffffffffffffffffffffffffffffffffffffff1614610a0957806040517f118cdaa7000000000000000000000000000000000000000000000000000000008152600401610a009190611525565b60405180910390fd5b610a1281610f94565b50565b6000610a1f610d2a565b6006600083815260200190815260200160002060009054906101000a900473ffffffffffffffffffffffffffffffffffffffff169050919050565b610a62610d2a565b600047905060008111610aaa576040517f08c379a0000000000000000000000000000000000000000000000000000000008152600401610aa1906122d9565b60405180910390fd5b610abb610ab5610abe565b82610fcd565b50565b60008060009054906101000a900473ffffffffffffffffffffffffffffffffffffffff16905090565b6000610af1610d2a565b600073ffffffffffffffffffffffffffffffffffffffff168273ffffffffffffffffffffffffffffffffffffffff1603610b60576040517f08c379a0000000000000000000000000000000000000000000000000000000008152600401610b579061236b565b60405180910390fd5b81600260006101000a81548173ffffffffffffffffffffffffffffffffffffffff021916908373ffffffffffffffffffffffffffffffffffffffff16021790555060019050919050565b6000600160009054906101000a900473ffffffffffffffffffffffffffffffffffffffff16905090565b6060610bde610d2a565b60005b600554811015610c79576006600082815260200190815260200160002060009054906101000a900473ffffffffffffffffffffffffffffffffffffffff16828281518110610c3257610c3161238b565b5b602002602001019073ffffffffffffffffffffffffffffffffffffffff16908173ffffffffffffffffffffffffffffffffffffffff16815250508080600101915050610be1565b5090565b610c85610d2a565b80600160006101000a81548173ffffffffffffffffffffffffffffffffffffffff021916908373ffffffffffffffffffffffffffffffffffffffff1602179055508073ffffffffffffffffffffffffffffffffffffffff16610ce5610abe565b73ffffffffffffffffffffffffffffffffffffffff167f38d16b8cac22d99fc7c124b9cd0de2d3fa1faef420bfe791d8c362d765e2270060405160405180910390a350565b610d32610fc5565b73ffffffffffffffffffffffffffffffffffffffff16610d50610abe565b73ffffffffffffffffffffffffffffffffffffffff1614610daf57610d73610fc5565b6040517f118cdaa7000000000000000000000000000000000000000000000000000000008152600401610da69190611525565b60405180910390fd5b565b6000610dbe838330611020565b905092915050565b600260035403610e02576040517f3ee5aeb500000000000000000000000000000000000000000000000000000000815260040160405180910390fd5b6002600381905550565b6000763d602d80600a3d3981f3363d3d373d3d3d363d730000008360601b60e81c176000526e5af43d82803e903d91602b57fd5bf38360781b1760205281603760096000f59050600073ffffffffffffffffffffffffffffffffffffffff168173ffffffffffffffffffffffffffffffffffffffff1603610eb9576040517fc2f868f400000000000000000000000000000000000000000000000000000000815260040160405180910390fd5b92915050565b60006040517f23b872dd00000000000000000000000000000000000000000000000000000000815273ffffffffffffffffffffffffffffffffffffffff8516600482015273ffffffffffffffffffffffffffffffffffffffff841660248201528260448201526020600060648360008a5af13d15601f3d1160016000511416171691505080610f83576040517f08c379a0000000000000000000000000000000000000000000000000000000008152600401610f7a90612406565b60405180910390fd5b5050505050565b6001600381905550565b600160006101000a81549073ffffffffffffffffffffffffffffffffffffffff0219169055610fc281611081565b50565b600033905090565b600080600080600085875af190508061101b576040517f08c379a000000000000000000000000000000000000000000000000000000000815260040161101290612472565b60405180910390fd5b505050565b60006040518260388201526f5af43d82803e903d91602b57fd5bf3ff6024820152846014820152733d602d80600a3d3981f3363d3d373d3d3d363d7381528360588201526037600c8201206078820152605560438201209150509392505050565b60008060009054906101000a900473ffffffffffffffffffffffffffffffffffffffff169050816000806101000a81548173ffffffffffffffffffffffffffffffffffffffff021916908373ffffffffffffffffffffffffffffffffffffffff1602179055508173ffffffffffffffffffffffffffffffffffffffff168173ffffffffffffffffffffffffffffffffffffffff167f8be0079c531659141344cd1fd0a4f28419497f9722a3daafe3b4186f6b6457e060405160405180910390a35050565b604051806101e00160405280600073ffffffffffffffffffffffffffffffffffffffff168152602001600081526020016000815260200160008152602001600081526020016000815260200160008152602001600081526020016000815260200160008152602001600081526020016000151581526020016000151581526020016000151581526020016000151581525090565b6040518060800160405280600081526020016000815260200160008152602001600081525090565b6000604051905090565b600080fd5b600080fd5b600073ffffffffffffffffffffffffffffffffffffffff82169050919050565b600061124082611215565b9050919050565b600061125282611235565b9050919050565b61126281611247565b811461126d57600080fd5b50565b60008135905061127f81611259565b92915050565b60006020828403121561129b5761129a61120b565b5b60006112a984828501611270565b91505092915050565b6112bb81611235565b82525050565b6000819050919050565b6112d4816112c1565b82525050565b60008115159050919050565b6112ef816112da565b82525050565b6101e08201600082015161130c60008501826112b2565b50602082015161131f60208501826112cb565b50604082015161133260408501826112cb565b50606082015161134560608501826112cb565b50608082015161135860808501826112cb565b5060a082015161136b60a08501826112cb565b5060c082015161137e60c08501826112cb565b5060e082015161139160e08501826112cb565b506101008201516113a66101008501826112cb565b506101208201516113bb6101208501826112cb565b506101408201516113d06101408501826112cb565b506101608201516113e56101608501826112e6565b506101808201516113fa6101808501826112e6565b506101a082015161140f6101a08501826112e6565b506101c08201516114246101c08501826112e6565b50505050565b60808201600082015161144060008501826112cb565b50602082015161145360208501826112cb565b50604082015161146660408501826112cb565b50606082015161147960608501826112cb565b50505050565b60006102608201905061149560008301856112f5565b6114a36101e083018461142a565b9392505050565b6114b381611235565b81146114be57600080fd5b50565b6000813590506114d0816114aa565b92915050565b600080604083850312156114ed576114ec61120b565b5b60006114fb858286016114c1565b925050602061150c858286016114c1565b9150509250929050565b61151f81611235565b82525050565b600060208201905061153a6000830184611516565b92915050565b600080fd5b6000601f19601f8301169050919050565b7f4e487b7100000000000000000000000000000000000000000000000000000000600052604160045260246000fd5b61158e82611545565b810181811067ffffffffffffffff821117156115ad576115ac611556565b5b80604052505050565b60006115c0611201565b90506115cc8282611585565b919050565b6115da816112c1565b81146115e557600080fd5b50565b6000813590506115f7816115d1565b92915050565b611606816112da565b811461161157600080fd5b50565b600081359050611623816115fd565b92915050565b60006101e082840312156116405761163f611540565b5b61164b6101e06115b6565b9050600061165b848285016114c1565b600083015250602061166f848285016115e8565b6020830152506040611683848285016115e8565b6040830152506060611697848285016115e8565b60608301525060806116ab848285016115e8565b60808301525060a06116bf848285016115e8565b60a08301525060c06116d3848285016115e8565b60c08301525060e06116e7848285016115e8565b60e0830152506101006116fc848285016115e8565b61010083015250610120611712848285016115e8565b61012083015250610140611728848285016115e8565b6101408301525061016061173e84828501611614565b6101608301525061018061175484828501611614565b610180830152506101a061176a84828501611614565b6101a0830152506101c061178084828501611614565b6101c08301525092915050565b6000608082840312156117a3576117a2611540565b5b6117ad60806115b6565b905060006117bd848285016115e8565b60008301525060206117d1848285016115e8565b60208301525060406117e5848285016115e8565b60408301525060606117f9848285016115e8565b60608301525092915050565b600080fd5b600080fd5b600067ffffffffffffffff82111561182a57611829611556565b5b61183382611545565b9050602081019050919050565b82818337600083830152505050565b600061186261185d8461180f565b6115b6565b90508281526020810184848401111561187e5761187d61180a565b5b611889848285611840565b509392505050565b600082601f8301126118a6576118a5611805565b5b81356118b684826020860161184f565b91505092915050565b600080600061028084860312156118d9576118d861120b565b5b60006118e786828701611629565b9350506101e06118f98682870161178d565b92505061026084013567ffffffffffffffff81111561191b5761191a611210565b5b61192786828701611891565b9150509250925092565b6000602082840312156119475761194661120b565b5b600082013567ffffffffffffffff81111561196557611964611210565b5b61197184828501611891565b91505092915050565b600060ff82169050919050565b6119908161197a565b82525050565b6000819050919050565b6119a981611996565b82525050565b60006060820190506119c46000830186611987565b6119d160208301856119a0565b6119de60408301846119a0565b949350505050565b60008061020083850312156119fe576119fd61120b565b5b6000611a0c85828601611629565b9250506101e083013567ffffffffffffffff811115611a2e57611a2d611210565b5b611a3a85828601611891565b9150509250929050565b611a4d816112da565b82525050565b6000602082019050611a686000830184611a44565b92915050565b600060208284031215611a8457611a8361120b565b5b6000611a92848285016115e8565b91505092915050565b600060208284031215611ab157611ab061120b565b5b6000611abf848285016114c1565b91505092915050565b600081519050919050565b600082825260208201905092915050565b6000819050602082019050919050565b6000611b0083836112b2565b60208301905092915050565b6000602082019050919050565b6000611b2482611ac8565b611b2e8185611ad3565b9350611b3983611ae4565b8060005b83811015611b6a578151611b518882611af4565b9750611b5c83611b0c565b925050600181019050611b3d565b5085935050505092915050565b60006020820190508181036000830152611b918184611b19565b905092915050565b600081519050611ba8816114aa565b92915050565b600081519050611bbd816115d1565b92915050565b600081519050611bd2816115fd565b92915050565b60006101e08284031215611bef57611bee611540565b5b611bfa6101e06115b6565b90506000611c0a84828501611b99565b6000830152506020611c1e84828501611bae565b6020830152506040611c3284828501611bae565b6040830152506060611c4684828501611bae565b6060830152506080611c5a84828501611bae565b60808301525060a0611c6e84828501611bae565b60a08301525060c0611c8284828501611bae565b60c08301525060e0611c9684828501611bae565b60e083015250610100611cab84828501611bae565b61010083015250610120611cc184828501611bae565b61012083015250610140611cd784828501611bae565b61014083015250610160611ced84828501611bc3565b61016083015250610180611d0384828501611bc3565b610180830152506101a0611d1984828501611bc3565b6101a0830152506101c0611d2f84828501611bc3565b6101c08301525092915050565b600060808284031215611d5257611d51611540565b5b611d5c60806115b6565b90506000611d6c84828501611bae565b6000830152506020611d8084828501611bae565b6020830152506040611d9484828501611bae565b6040830152506060611da884828501611bae565b60608301525092915050565b6000806102608385031215611dcc57611dcb61120b565b5b6000611dda85828601611bd8565b9250506101e0611dec85828601611d3c565b9150509250929050565b60008160601b9050919050565b6000611e0e82611df6565b9050919050565b6000611e2082611e03565b9050919050565b611e38611e3382611235565b611e15565b82525050565b6000611e4a8285611e27565b601482019150611e5a8284611e27565b6014820191508190509392505050565b600082825260208201905092915050565b7f496e636f7272656374207369676e617475726500000000000000000000000000600082015250565b6000611eb1601383611e6a565b9150611ebc82611e7b565b602082019050919050565b60006020820190508181036000830152611ee081611ea4565b9050919050565b600060208284031215611efd57611efc61120b565b5b6000611f0b84828501611bc3565b91505092915050565b7f4572726f72000000000000000000000000000000000000000000000000000000600082015250565b6000611f4a600583611e6a565b9150611f5582611f14565b602082019050919050565b60006020820190508181036000830152611f7981611f3d565b9050919050565b7f4e487b7100000000000000000000000000000000000000000000000000000000600052601160045260246000fd5b6000611fba826112c1565b91507fffffffffffffffffffffffffffffffffffffffffffffffffffffffffffffffff8203611fec57611feb611f80565b5b600182019050919050565b60006101e08201905061200d60008301846112f5565b92915050565b6000602082840312156120295761202861120b565b5b600061203784828501611bae565b91505092915050565b7f416d6f756e74206d7573742062652067726561746572207468616e2030000000600082015250565b6000612076601d83611e6a565b915061208182612040565b602082019050919050565b600060208201905081810360008301526120a581612069565b9050919050565b60006080820190506120c1600083018461142a565b92915050565b6120d0816112c1565b82525050565b600060a0820190506120eb6000830188611516565b6120f86020830187611516565b61210560408301866120c7565b61211260608301856120c7565b61211f60808301846120c7565b9695505050505050565b7f57726f6e67207369676e61747572650000000000000000000000000000000000600082015250565b600061215f600f83611e6a565b915061216a82612129565b602082019050919050565b6000602082019050818103600083015261218e81612152565b9050919050565b6000610200820190506121ab60008301856119a0565b6121b860208301846112f5565b9392505050565b600081905092915050565b7f1901000000000000000000000000000000000000000000000000000000000000600082015250565b60006122006002836121bf565b915061220b826121ca565b600282019050919050565b6000819050919050565b61223161222c82611996565b612216565b82525050565b6000612242826121f3565b915061224e8285612220565b60208201915061225e8284612220565b6020820191508190509392505050565b600060808201905061228360008301876119a0565b6122906020830186611987565b61229d60408301856119a0565b6122aa60608301846119a0565b95945050505050565b50565b60006122c3600083611e6a565b91506122ce826122b3565b600082019050919050565b600060208201905081810360008301526122f2816122b6565b9050919050565b7f4e6577207369676e657220616464726573732063616e6e6f742062652061207a60008201527f65726f2061646472657373000000000000000000000000000000000000000000602082015250565b6000612355602b83611e6a565b9150612360826122f9565b604082019050919050565b6000602082019050818103600083015261238481612348565b9050919050565b7f4e487b7100000000000000000000000000000000000000000000000000000000600052603260045260246000fd5b7f5452414e534645525f46524f4d5f4641494c4544000000000000000000000000600082015250565b60006123f0601483611e6a565b91506123fb826123ba565b602082019050919050565b6000602082019050818103600083015261241f816123e3565b9050919050565b7f4554485f5452414e534645525f4641494c454400000000000000000000000000600082015250565b600061245c601383611e6a565b915061246782612426565b602082019050919050565b6000602082019050818103600083015261248b8161244f565b905091905056fea264697066735822122081245ab952f1a093b6973eada8321f26992cb495734660cb8961f552d9645e6964736f6c63430008180033",
  "linkReferences": {},
  "deployedLinkReferences": {}
}