{
  "_format": "hh-sol-artifact-1",
  "contractName": "APToken",
  "sourceName": "contracts/Tokens/APToken.sol",
  "abi": [
    {
      "inputs": [
        {
          "internalType": "address",
          "name": "initialOwner",
          "type": "address"
        }
      ],
      "stateMutability": "nonpayable",
      "type": "constructor"
    },
    {
      "inputs": [
        {
          "internalType": "address",
          "name": "spender",
          "type": "address"
        },
        {
          "internalType": "uint256",
          "name": "allowance",
          "type": "uint256"
        },
        {
          "internalType": "uint256",
          "name": "needed",
          "type": "uint256"
        }
      ],
      "name": "ERC20InsufficientAllowance",
      "type": "error"
    },
    {
      "inputs": [
        {
          "internalType": "address",
          "name": "sender",
          "type": "address"
        },
        {
          "internalType": "uint256",
          "name": "balance",
          "type": "uint256"
        },
        {
          "internalType": "uint256",
          "name": "needed",
          "type": "uint256"
        }
      ],
      "name": "ERC20InsufficientBalance",
      "type": "error"
    },
    {
      "inputs": [
        {
          "internalType": "address",
          "name": "approver",
          "type": "address"
        }
      ],
      "name": "ERC20InvalidApprover",
      "type": "error"
    },
    {
      "inputs": [
        {
          "internalType": "address",
          "name": "receiver",
          "type": "address"
        }
      ],
      "name": "ERC20InvalidReceiver",
      "type": "error"
    },
    {
      "inputs": [
        {
          "internalType": "address",
          "name": "sender",
          "type": "address"
        }
      ],
      "name": "ERC20InvalidSender",
      "type": "error"
    },
    {
      "inputs": [
        {
          "internalType": "address",
          "name": "spender",
          "type": "address"
        }
      ],
      "name": "ERC20InvalidSpender",
      "type": "error"
    },
    {
      "inputs": [
        {
          "internalType": "address",
          "name": "owner",
          "type": "address"
        }
      ],
      "name": "OwnableInvalidOwner",
      "type": "error"
    },
    {
      "inputs": [
        {
          "internalType": "address",
          "name": "account",
          "type": "address"
        }
      ],
      "name": "OwnableUnauthorizedAccount",
      "type": "error"
    },
    {
      "anonymous": false,
      "inputs": [
        {
          "indexed": true,
          "internalType": "address",
          "name": "owner",
          "type": "address"
        },
        {
          "indexed": true,
          "internalType": "address",
          "name": "spender",
          "type": "address"
        },
        {
          "indexed": false,
          "internalType": "uint256",
          "name": "value",
          "type": "uint256"
        }
      ],
      "name": "Approval",
      "type": "event"
    },
    {
      "anonymous": false,
      "inputs": [
        {
          "indexed": true,
          "internalType": "address",
          "name": "previousOwner",
          "type": "address"
        },
        {
          "indexed": true,
          "internalType": "address",
          "name": "newOwner",
          "type": "address"
        }
      ],
      "name": "OwnershipTransferred",
      "type": "event"
    },
    {
      "anonymous": false,
      "inputs": [
        {
          "indexed": true,
          "internalType": "address",
          "name": "from",
          "type": "address"
        },
        {
          "indexed": true,
          "internalType": "address",
          "name": "to",
          "type": "address"
        },
        {
          "indexed": false,
          "internalType": "uint256",
          "name": "value",
          "type": "uint256"
        }
      ],
      "name": "Transfer",
      "type": "event"
    },
    {
      "inputs": [
        {
          "internalType": "address",
          "name": "owner",
          "type": "address"
        },
        {
          "internalType": "address",
          "name": "spender",
          "type": "address"
        }
      ],
      "name": "allowance",
      "outputs": [
        {
          "internalType": "uint256",
          "name": "",
          "type": "uint256"
        }
      ],
      "stateMutability": "view",
      "type": "function"
    },
    {
      "inputs": [
        {
          "internalType": "address",
          "name": "spender",
          "type": "address"
        },
        {
          "internalType": "uint256",
          "name": "value",
          "type": "uint256"
        }
      ],
      "name": "approve",
      "outputs": [
        {
          "internalType": "bool",
          "name": "",
          "type": "bool"
        }
      ],
      "stateMutability": "nonpayable",
      "type": "function"
    },
    {
      "inputs": [
        {
          "internalType": "address",
          "name": "account",
          "type": "address"
        }
      ],
      "name": "balanceOf",
      "outputs": [
        {
          "internalType": "uint256",
          "name": "",
          "type": "uint256"
        }
      ],
      "stateMutability": "view",
      "type": "function"
    },
    {
      "inputs": [
        {
          "internalType": "uint256",
          "name": "value",
          "type": "uint256"
        }
      ],
      "name": "burn",
      "outputs": [],
      "stateMutability": "nonpayable",
      "type": "function"
    },
    {
      "inputs": [
        {
          "internalType": "address",
          "name": "account",
          "type": "address"
        },
        {
          "internalType": "uint256",
          "name": "value",
          "type": "uint256"
        }
      ],
      "name": "burnFrom",
      "outputs": [],
      "stateMutability": "nonpayable",
      "type": "function"
    },
    {
      "inputs": [],
      "name": "decimals",
      "outputs": [
        {
          "internalType": "uint8",
          "name": "",
          "type": "uint8"
        }
      ],
      "stateMutability": "view",
      "type": "function"
    },
    {
      "inputs": [],
      "name": "name",
      "outputs": [
        {
          "internalType": "string",
          "name": "",
          "type": "string"
        }
      ],
      "stateMutability": "view",
      "type": "function"
    },
    {
      "inputs": [],
      "name": "owner",
      "outputs": [
        {
          "internalType": "address",
          "name": "",
          "type": "address"
        }
      ],
      "stateMutability": "view",
      "type": "function"
    },
    {
      "inputs": [],
      "name": "renounceOwnership",
      "outputs": [],
      "stateMutability": "nonpayable",
      "type": "function"
    },
    {
      "inputs": [],
      "name": "symbol",
      "outputs": [
        {
          "internalType": "string",
          "name": "",
          "type": "string"
        }
      ],
      "stateMutability": "view",
      "type": "function"
    },
    {
      "inputs": [],
      "name": "totalSupply",
      "outputs": [
        {
          "internalType": "uint256",
          "name": "",
          "type": "uint256"
        }
      ],
      "stateMutability": "view",
      "type": "function"
    },
    {
      "inputs": [
        {
          "internalType": "address",
          "name": "to",
          "type": "address"
        },
        {
          "internalType": "uint256",
          "name": "value",
          "type": "uint256"
        }
      ],
      "name": "transfer",
      "outputs": [
        {
          "internalType": "bool",
          "name": "",
          "type": "bool"
        }
      ],
      "stateMutability": "nonpayable",
      "type": "function"
    },
    {
      "inputs": [
        {
          "internalType": "address",
          "name": "from",
          "type": "address"
        },
        {
          "internalType": "address",
          "name": "to",
          "type": "address"
        },
        {
          "internalType": "uint256",
          "name": "value",
          "type": "uint256"
        }
      ],
      "name": "transferFrom",
      "outputs": [
        {
          "internalType": "bool",
          "name": "",
          "type": "bool"
        }
      ],
      "stateMutability": "nonpayable",
      "type": "function"
    },
    {
      "inputs": [
        {
          "internalType": "address",
          "name": "newOwner",
          "type": "address"
        }
      ],
      "name": "transferOwnership",
      "outputs": [],
      "stateMutability": "nonpayable",
      "type": "function"
    }
  ],
  "bytecode": "0x60806040523480156200001157600080fd5b5060405162001e4d38038062001e4d83398181016040528101906200003791906200058e565b806040518060400160405280600781526020017f4150546f6b656e000000000000000000000000000000000000000000000000008152506040518060400160405280600281526020017f41500000000000000000000000000000000000000000000000000000000000008152508160039081620000b591906200083a565b508060049081620000c791906200083a565b505050600073ffffffffffffffffffffffffffffffffffffffff168173ffffffffffffffffffffffffffffffffffffffff16036200013f5760006040517f1e4fbdf700000000000000000000000000000000000000000000000000000000815260040162000136919062000932565b60405180910390fd5b62000150816200019860201b60201c565b506200019133620001666200025e60201b60201c565b600a62000174919062000adf565b631dcd650062000185919062000b30565b6200026760201b60201c565b5062000c21565b6000600560009054906101000a900473ffffffffffffffffffffffffffffffffffffffff16905081600560006101000a81548173ffffffffffffffffffffffffffffffffffffffff021916908373ffffffffffffffffffffffffffffffffffffffff1602179055508173ffffffffffffffffffffffffffffffffffffffff168173ffffffffffffffffffffffffffffffffffffffff167f8be0079c531659141344cd1fd0a4f28419497f9722a3daafe3b4186f6b6457e060405160405180910390a35050565b60006012905090565b600073ffffffffffffffffffffffffffffffffffffffff168273ffffffffffffffffffffffffffffffffffffffff1603620002dc5760006040517fec442f05000000000000000000000000000000000000000000000000000000008152600401620002d3919062000932565b60405180910390fd5b620002f060008383620002f460201b60201c565b5050565b600073ffffffffffffffffffffffffffffffffffffffff168373ffffffffffffffffffffffffffffffffffffffff16036200034a5780600260008282546200033d919062000b7b565b9250508190555062000420565b60008060008573ffffffffffffffffffffffffffffffffffffffff1673ffffffffffffffffffffffffffffffffffffffff16815260200190815260200160002054905081811015620003d9578381836040517fe450d38c000000000000000000000000000000000000000000000000000000008152600401620003d09392919062000bc7565b60405180910390fd5b8181036000808673ffffffffffffffffffffffffffffffffffffffff1673ffffffffffffffffffffffffffffffffffffffff16815260200190815260200160002081905550505b600073ffffffffffffffffffffffffffffffffffffffff168273ffffffffffffffffffffffffffffffffffffffff16036200046b5780600260008282540392505081905550620004b8565b806000808473ffffffffffffffffffffffffffffffffffffffff1673ffffffffffffffffffffffffffffffffffffffff168152602001908152602001600020600082825401925050819055505b8173ffffffffffffffffffffffffffffffffffffffff168373ffffffffffffffffffffffffffffffffffffffff167fddf252ad1be2c89b69c2b068fc378daa952ba7f163c4a11628f55a4df523b3ef8360405162000517919062000c04565b60405180910390a3505050565b600080fd5b600073ffffffffffffffffffffffffffffffffffffffff82169050919050565b6000620005568262000529565b9050919050565b620005688162000549565b81146200057457600080fd5b50565b60008151905062000588816200055d565b92915050565b600060208284031215620005a757620005a662000524565b5b6000620005b78482850162000577565b91505092915050565b600081519050919050565b7f4e487b7100000000000000000000000000000000000000000000000000000000600052604160045260246000fd5b7f4e487b7100000000000000000000000000000000000000000000000000000000600052602260045260246000fd5b600060028204905060018216806200064257607f821691505b602082108103620006585762000657620005fa565b5b50919050565b60008190508160005260206000209050919050565b60006020601f8301049050919050565b600082821b905092915050565b600060088302620006c27fffffffffffffffffffffffffffffffffffffffffffffffffffffffffffffffff8262000683565b620006ce868362000683565b95508019841693508086168417925050509392505050565b6000819050919050565b6000819050919050565b60006200071b620007156200070f84620006e6565b620006f0565b620006e6565b9050919050565b6000819050919050565b6200073783620006fa565b6200074f620007468262000722565b84845462000690565b825550505050565b600090565b6200076662000757565b620007738184846200072c565b505050565b5b818110156200079b576200078f6000826200075c565b60018101905062000779565b5050565b601f821115620007ea57620007b4816200065e565b620007bf8462000673565b81016020851015620007cf578190505b620007e7620007de8562000673565b83018262000778565b50505b505050565b600082821c905092915050565b60006200080f60001984600802620007ef565b1980831691505092915050565b60006200082a8383620007fc565b9150826002028217905092915050565b6200084582620005c0565b67ffffffffffffffff811115620008615762000860620005cb565b5b6200086d825462000629565b6200087a8282856200079f565b600060209050601f831160018114620008b257600084156200089d578287015190505b620008a985826200081c565b86555062000919565b601f198416620008c2866200065e565b60005b82811015620008ec57848901518255600182019150602085019450602081019050620008c5565b868310156200090c578489015162000908601f891682620007fc565b8355505b6001600288020188555050505b505050505050565b6200092c8162000549565b82525050565b600060208201905062000949600083018462000921565b92915050565b7f4e487b7100000000000000000000000000000000000000000000000000000000600052601160045260246000fd5b60008160011c9050919050565b6000808291508390505b6001851115620009dd57808604811115620009b557620009b46200094f565b5b6001851615620009c55780820291505b8081029050620009d5856200097e565b945062000995565b94509492505050565b600082620009f8576001905062000acb565b8162000a08576000905062000acb565b816001811462000a21576002811462000a2c5762000a62565b600191505062000acb565b60ff84111562000a415762000a406200094f565b5b8360020a91508482111562000a5b5762000a5a6200094f565b5b5062000acb565b5060208310610133831016604e8410600b841016171562000a9c5782820a90508381111562000a965762000a956200094f565b5b62000acb565b62000aab84848460016200098b565b9250905081840481111562000ac55762000ac46200094f565b5b81810290505b9392505050565b600060ff82169050919050565b600062000aec82620006e6565b915062000af98362000ad2565b925062000b287fffffffffffffffffffffffffffffffffffffffffffffffffffffffffffffffff8484620009e6565b905092915050565b600062000b3d82620006e6565b915062000b4a83620006e6565b925082820262000b5a81620006e6565b9150828204841483151762000b745762000b736200094f565b5b5092915050565b600062000b8882620006e6565b915062000b9583620006e6565b925082820190508082111562000bb05762000baf6200094f565b5b92915050565b62000bc181620006e6565b82525050565b600060608201905062000bde600083018662000921565b62000bed602083018562000bb6565b62000bfc604083018462000bb6565b949350505050565b600060208201905062000c1b600083018462000bb6565b92915050565b61121c8062000c316000396000f3fe608060405234801561001057600080fd5b50600436106100ea5760003560e01c8063715018a61161008c57806395d89b411161006657806395d89b4114610239578063a9059cbb14610257578063dd62ed3e14610287578063f2fde38b146102b7576100ea565b8063715018a6146101f557806379cc6790146101ff5780638da5cb5b1461021b576100ea565b806323b872dd116100c857806323b872dd1461015b578063313ce5671461018b57806342966c68146101a957806370a08231146101c5576100ea565b806306fdde03146100ef578063095ea7b31461010d57806318160ddd1461013d575b600080fd5b6100f76102d3565b6040516101049190610e43565b60405180910390f35b61012760048036038101906101229190610efe565b610365565b6040516101349190610f59565b60405180910390f35b610145610388565b6040516101529190610f83565b60405180910390f35b61017560048036038101906101709190610f9e565b610392565b6040516101829190610f59565b60405180910390f35b6101936103c1565b6040516101a0919061100d565b60405180910390f35b6101c360048036038101906101be9190611028565b6103ca565b005b6101df60048036038101906101da9190611055565b6103de565b6040516101ec9190610f83565b60405180910390f35b6101fd610426565b005b61021960048036038101906102149190610efe565b61043a565b005b61022361045a565b6040516102309190611091565b60405180910390f35b610241610484565b60405161024e9190610e43565b60405180910390f35b610271600480360381019061026c9190610efe565b610516565b60405161027e9190610f59565b60405180910390f35b6102a1600480360381019061029c91906110ac565b610539565b6040516102ae9190610f83565b60405180910390f35b6102d160048036038101906102cc9190611055565b6105c0565b005b6060600380546102e29061111b565b80601f016020809104026020016040519081016040528092919081815260200182805461030e9061111b565b801561035b5780601f106103305761010080835404028352916020019161035b565b820191906000526020600020905b81548152906001019060200180831161033e57829003601f168201915b5050505050905090565b600080610370610646565b905061037d81858561064e565b600191505092915050565b6000600254905090565b60008061039d610646565b90506103aa858285610660565b6103b58585856106f4565b60019150509392505050565b60006012905090565b6103db6103d5610646565b826107e8565b50565b60008060008373ffffffffffffffffffffffffffffffffffffffff1673ffffffffffffffffffffffffffffffffffffffff168152602001908152602001600020549050919050565b61042e61086a565b61043860006108f1565b565b61044c82610446610646565b83610660565b61045682826107e8565b5050565b6000600560009054906101000a900473ffffffffffffffffffffffffffffffffffffffff16905090565b6060600480546104939061111b565b80601f01602080910402602001604051908101604052809291908181526020018280546104bf9061111b565b801561050c5780601f106104e15761010080835404028352916020019161050c565b820191906000526020600020905b8154815290600101906020018083116104ef57829003601f168201915b5050505050905090565b600080610521610646565b905061052e8185856106f4565b600191505092915050565b6000600160008473ffffffffffffffffffffffffffffffffffffffff1673ffffffffffffffffffffffffffffffffffffffff16815260200190815260200160002060008373ffffffffffffffffffffffffffffffffffffffff1673ffffffffffffffffffffffffffffffffffffffff16815260200190815260200160002054905092915050565b6105c861086a565b600073ffffffffffffffffffffffffffffffffffffffff168173ffffffffffffffffffffffffffffffffffffffff160361063a5760006040517f1e4fbdf70000000000000000000000000000000000000000000000000000000081526004016106319190611091565b60405180910390fd5b610643816108f1565b50565b600033905090565b61065b83838360016109b7565b505050565b600061066c8484610539565b90507fffffffffffffffffffffffffffffffffffffffffffffffffffffffffffffffff81146106ee57818110156106de578281836040517ffb8f41b20000000000000000000000000000000000000000000000000000000081526004016106d59392919061114c565b60405180910390fd5b6106ed848484840360006109b7565b5b50505050565b600073ffffffffffffffffffffffffffffffffffffffff168373ffffffffffffffffffffffffffffffffffffffff16036107665760006040517f96c6fd1e00000000000000000000000000000000000000000000000000000000815260040161075d9190611091565b60405180910390fd5b600073ffffffffffffffffffffffffffffffffffffffff168273ffffffffffffffffffffffffffffffffffffffff16036107d85760006040517fec442f050000000000000000000000000000000000000000000000000000000081526004016107cf9190611091565b60405180910390fd5b6107e3838383610b8e565b505050565b600073ffffffffffffffffffffffffffffffffffffffff168273ffffffffffffffffffffffffffffffffffffffff160361085a5760006040517f96c6fd1e0000000000000000000000000000000000000000000000000000000081526004016108519190611091565b60405180910390fd5b61086682600083610b8e565b5050565b610872610646565b73ffffffffffffffffffffffffffffffffffffffff1661089061045a565b73ffffffffffffffffffffffffffffffffffffffff16146108ef576108b3610646565b6040517f118cdaa70000000000000000000000000000000000000000000000000000000081526004016108e69190611091565b60405180910390fd5b565b6000600560009054906101000a900473ffffffffffffffffffffffffffffffffffffffff16905081600560006101000a81548173ffffffffffffffffffffffffffffffffffffffff021916908373ffffffffffffffffffffffffffffffffffffffff1602179055508173ffffffffffffffffffffffffffffffffffffffff168173ffffffffffffffffffffffffffffffffffffffff167f8be0079c531659141344cd1fd0a4f28419497f9722a3daafe3b4186f6b6457e060405160405180910390a35050565b600073ffffffffffffffffffffffffffffffffffffffff168473ffffffffffffffffffffffffffffffffffffffff1603610a295760006040517fe602df05000000000000000000000000000000000000000000000000000000008152600401610a209190611091565b60405180910390fd5b600073ffffffffffffffffffffffffffffffffffffffff168373ffffffffffffffffffffffffffffffffffffffff1603610a9b5760006040517f94280d62000000000000000000000000000000000000000000000000000000008152600401610a929190611091565b60405180910390fd5b81600160008673ffffffffffffffffffffffffffffffffffffffff1673ffffffffffffffffffffffffffffffffffffffff16815260200190815260200160002060008573ffffffffffffffffffffffffffffffffffffffff1673ffffffffffffffffffffffffffffffffffffffff168152602001908152602001600020819055508015610b88578273ffffffffffffffffffffffffffffffffffffffff168473ffffffffffffffffffffffffffffffffffffffff167f8c5be1e5ebec7d5bd14f71427d1e84f3dd0314c0f7b2291e5b200ac8c7c3b92584604051610b7f9190610f83565b60405180910390a35b50505050565b600073ffffffffffffffffffffffffffffffffffffffff168373ffffffffffffffffffffffffffffffffffffffff1603610be0578060026000828254610bd491906111b2565b92505081905550610cb3565b60008060008573ffffffffffffffffffffffffffffffffffffffff1673ffffffffffffffffffffffffffffffffffffffff16815260200190815260200160002054905081811015610c6c578381836040517fe450d38c000000000000000000000000000000000000000000000000000000008152600401610c639392919061114c565b60405180910390fd5b8181036000808673ffffffffffffffffffffffffffffffffffffffff1673ffffffffffffffffffffffffffffffffffffffff16815260200190815260200160002081905550505b600073ffffffffffffffffffffffffffffffffffffffff168273ffffffffffffffffffffffffffffffffffffffff1603610cfc5780600260008282540392505081905550610d49565b806000808473ffffffffffffffffffffffffffffffffffffffff1673ffffffffffffffffffffffffffffffffffffffff168152602001908152602001600020600082825401925050819055505b8173ffffffffffffffffffffffffffffffffffffffff168373ffffffffffffffffffffffffffffffffffffffff167fddf252ad1be2c89b69c2b068fc378daa952ba7f163c4a11628f55a4df523b3ef83604051610da69190610f83565b60405180910390a3505050565b600081519050919050565b600082825260208201905092915050565b60005b83811015610ded578082015181840152602081019050610dd2565b60008484015250505050565b6000601f19601f8301169050919050565b6000610e1582610db3565b610e1f8185610dbe565b9350610e2f818560208601610dcf565b610e3881610df9565b840191505092915050565b60006020820190508181036000830152610e5d8184610e0a565b905092915050565b600080fd5b600073ffffffffffffffffffffffffffffffffffffffff82169050919050565b6000610e9582610e6a565b9050919050565b610ea581610e8a565b8114610eb057600080fd5b50565b600081359050610ec281610e9c565b92915050565b6000819050919050565b610edb81610ec8565b8114610ee657600080fd5b50565b600081359050610ef881610ed2565b92915050565b60008060408385031215610f1557610f14610e65565b5b6000610f2385828601610eb3565b9250506020610f3485828601610ee9565b9150509250929050565b60008115159050919050565b610f5381610f3e565b82525050565b6000602082019050610f6e6000830184610f4a565b92915050565b610f7d81610ec8565b82525050565b6000602082019050610f986000830184610f74565b92915050565b600080600060608486031215610fb757610fb6610e65565b5b6000610fc586828701610eb3565b9350506020610fd686828701610eb3565b9250506040610fe786828701610ee9565b9150509250925092565b600060ff82169050919050565b61100781610ff1565b82525050565b60006020820190506110226000830184610ffe565b92915050565b60006020828403121561103e5761103d610e65565b5b600061104c84828501610ee9565b91505092915050565b60006020828403121561106b5761106a610e65565b5b600061107984828501610eb3565b91505092915050565b61108b81610e8a565b82525050565b60006020820190506110a66000830184611082565b92915050565b600080604083850312156110c3576110c2610e65565b5b60006110d185828601610eb3565b92505060206110e285828601610eb3565b9150509250929050565b7f4e487b7100000000000000000000000000000000000000000000000000000000600052602260045260246000fd5b6000600282049050600182168061113357607f821691505b602082108103611146576111456110ec565b5b50919050565b60006060820190506111616000830186611082565b61116e6020830185610f74565b61117b6040830184610f74565b949350505050565b7f4e487b7100000000000000000000000000000000000000000000000000000000600052601160045260246000fd5b60006111bd82610ec8565b91506111c883610ec8565b92508282019050808211156111e0576111df611183565b5b9291505056fea264697066735822122089e6c6d1273b92e006a1edec7a01eb1019d3eae67b438483a01c96678d1a4a6d64736f6c63430008180033",
  "linkReferences": {},
  "deployedLinkReferences": {}
}